:020000040800F2
:1000000000500020853800083126000839260008F5
:10001000412600084926000851260008000000007B
:100020000000000000000000000000005926000849
:100030006526000800000000712600087D260008E3
:10004000CD380008CD380008CD380008CD3800087C
:10005000CD380008CD380008CD380008CD3800086C
:10006000CD380008CD3800088D260008CD380008AE
:10007000CD380008CD380008CD380008CD3800084C
:10008000CD380008CD380008CD380008CD3800083C
:10009000CD380008CD380008CD3800089B26000870
:1000A000CD380008CD380008CD380008CD3800081C
:1000B000CD380008CD380008A9260008CD38000842
:1000C000CD380008CD380008CD380008CD380008FC
:1000D000CD380008BD260008CD380008CD3800080E
:1000E000CD380008CD380008CD38000800000000E9
:1000F0000000000000000000000000000000000000
:0C01000000000000000000005FF808F1A3
:10010C0010B5054C237833B9044B13B10448AFF345
:10011C0000800123237010BDB800002000000000F7
:10012C00F07A000808B5034B1BB103490348AFF341
:10013C00008008BD00000000BC000020F07A000820
:10014C00034613F8012B002AFBD1181A013870470B
:10015C0080F0004002E000BF81F0004142001FBF70
:10016C005FEA410392EA030F7FEA226C7FEA236C79
:10017C006AD04FEA1262D2EB1363C1BFD21841406E
:10018C0048404140B8BF5B42192B88BF704710F004
:10019C00004F40F4000020F07F4018BF404211F0A7
:1001AC00004F41F4000121F07F4118BF494292EA0F
:1001BC00030F3FD0A2F1010241FA03FC10EB0C003B
:1001CC00C3F1200301FA03F100F0004302D54942C8
:1001DC0060EB4000B0F5000F13D3B0F1807F06D375
:1001EC0040084FEA310102F10102FE2A51D2B1F16D
:1001FC00004F40EBC25008BF20F0010040EA030062
:10020C007047490040EB0000013A28BFB0F5000FE1
:10021C00EDD2B0FA80FCACF1080CB2EB0C0200FA97
:10022C000CF0AABF00EBC25052421843BCBFD040E6
:10023C001843704792F0000F81F4000106BF80F460
:10024C0000000132013BB5E74FEA41037FEA226C23
:10025C0018BF7FEA236C21D092EA030F04D092F0EE
:10026C00000F08BF0846704790EA010F1CBF002022
:10027C00704712F07F4F04D1400028BF40F000407F
:10028C00704712F100723CBF00F50000704700F09F
:10029C00004343F0FE4040F4000070477FEA2262C6
:1002AC0016BF08467FEA23630146420206BF5FEA97
:1002BC00412390EA010F40F4800070474FF0000397
:1002CC0004E000BF10F0004348BF40425FEA000C5E
:1002DC0008BF704743F0964301464FF000001CE006
:1002EC0050EA010208BF70474FF000030AE000BF5C
:1002FC0050EA010208BF704711F0004302D540429A
:10030C0061EB41015FEA010C02BF8446014600200B
:10031C0043F0B64308BFA3F18053A3F50003BCFA26
:10032C008CF2083AA3EBC25310DB01FA02FC6344D3
:10033C0000FA02FCC2F12002BCF1004F20FA02F2DA
:10034C0043EB020008BF20F00100704702F12002CD
:10035C0001FA02FCC2F1200250EA4C0021FA02F22E
:10036C0043EB020008BF20EADC7070474FF0FF0C33
:10037C001CEAD0521EBF1CEAD15392EA0C0F93EA2E
:10038C000C0F6FD01A4480EA010C400218BF5FEAD0
:10039C0041211ED04FF0006343EA501043EA511143
:1003AC00A0FB01310CF00040B1F5000F3EBF49003D
:1003BC0041EAD3715B0040EA010062F17F02FD2A41
:1003CC001DD8B3F1004F40EBC25008BF20F0010024
:1003DC00704790F0000F0CF0004C08BF49024CEA3B
:1003EC00502040EA51207F3AC2BFD2F1FF0340EACD
:1003FC00C250704740F400004FF00003013A5DDC3E
:10040C0012F1190FDCBF00F000407047C2F100027E
:10041C00410021FA02F1C2F1200200FA02FC5FEA6B
:10042C00310040F1000053EA4C0308BF20EADC70B5
:10043C00704792F0000F00F0004C02BF400010F427
:10044C00000F013AF9D040EA0C0093F0000F01F0D4
:10045C00004C02BF490011F4000F013BF9D041EAF6
:10046C000C018FE70CEAD15392EA0C0F18BF93EAF8
:10047C000C0F0AD030F0004C18BF31F0004CD8D122
:10048C0080EA010000F00040704790F0000F17BFA9
:10049C0090F0004F084691F0000F91F0004F14D0EF
:1004AC0092EA0C0F01D142020FD193EA0C0F03D147
:1004BC004B0218BF084608D180EA010000F000404A
:1004CC0040F0FE4040F40000704740F0FE4040F425
:1004DC00400070474FF0FF0C1CEAD0521EBF1CEAC4
:1004EC00D15392EA0C0F93EA0C0F69D0A2EB0302E2
:1004FC0080EA010C49024FEA402037D04FF080537C
:10050C0043EA111143EA10130CF000408B4238BF40
:10051C005B0042F17D024FF4000C8B4224BF5B1A4E
:10052C0040EA0C00B3EB510F24BFA3EB510340EA9C
:10053C005C00B3EB910F24BFA3EB910340EA9C004A
:10054C00B3EBD10F24BFA3EBD10340EADC001B01BA
:10055C0018BF5FEA1C1CE0D1FD2A3FF650AF8B425E
:10056C0040EBC25008BF20F0010070470CF0004C6B
:10057C004CEA50207F32C2BFD2F1FF0340EAC25096
:10058C00704740F400004FF00003013A37E792F057
:10059C00000F00F0004C02BF400010F4000F013AB5
:1005AC00F9D040EA0C0093F0000F01F0004C02BFB0
:1005BC00490011F4000F013BF9D041EA0C0195E719
:1005CC000CEAD15392EA0C0F08D142027FF47DAFB2
:1005DC0093EA0C0F7FF470AF084676E793EA0C0FA2
:1005EC0004D14B023FF44CAF08466EE730F0004CA0
:1005FC0018BF31F0004CCAD130F000427FF45CAF30
:10060C0031F000437FF43CAF5FE700BF4FF0FF3C9D
:10061C0006E000BF4FF0010C02E000BF4FF0010CF0
:10062C004DF804CD4FEA40024FEA41037FEA226CB9
:10063C0018BF7FEA236C11D001B052EA530C18BFDB
:10064C0090EA010F58BFB2EB030088BFC81738BF40
:10065C006FEAE17018BF40F0010070477FEA226C2E
:10066C0002D15FEA402C05D17FEA236CE4D15FEA2A
:10067C00412CE1D05DF8040B704700BF844608465E
:10068C006146FFE70FB5FFF7C9FF002848BF10F11F
:10069C00000F0FBD4DF808EDFFF7F4FF0CBF012064
:1006AC0000205DF808FB00BF4DF808EDFFF7EAFFEE
:1006BC0034BF012000205DF808FB00BF4DF808EDA9
:1006CC00FFF7E0FF94BF012000205DF808FB00BF9E
:1006DC004DF808EDFFF7D2FF94BF012000205DF824
:1006EC0008FB00BF4DF808EDFFF7C8FF34BF012031
:1006FC0000205DF808FB00BF42000ED2B2F1FE4FA5
:10070C000BD34FF09E03B3EB126209D44FEA0023D4
:10071C0043F0004323FA02F070474FF0000070479B
:10072C0012F1610F01D1420202D14FF0FF3070473C
:10073C004FF00000704700BF80B483B000AF034699
:10074C00FB71044AFB79137000BF0C37BD4680BCAB
:10075C00704700BFD400002080B400AF024B1B7860
:10076C001846BD4680BC7047D400002080B584B0CC
:10077C0000AF03460A46FB711346BB7103F0FAF84F
:10078C00F860FA793B4913469B0013449B000B44D9
:10079C000C331B68FA68D31A132B67D9FA793549CD
:1007AC0013469B0013449B000B440C33FA681A60ED
:1007BC00FA79304913469B0013449B000B441B7879
:1007CC00DBB2002B0DD0BB79002B0AD0FA7929496A
:1007DC0013469B0013449B000B440433FA681A60C5
:1007EC0045E0FA79234913469B0013449B000B44C4
:1007FC001B78DBB283F00103DBB2002B16D0BB7984
:10080C00002B13D0FA791B4913469B0013449B0011
:10081C000B4401221A70FA79164913469B001344B3
:10082C009B000B440433FA681A6020E0FA791149F2
:10083C0013469B0013449B000B441B78DBB2002B2C
:10084C0015D0FA790B4913469B0013449B000B44BB
:10085C00013301221A70FA79064913469B0013449E
:10086C009B000B440833FA681A6000E000BF103795
:10087C00BD4680BDD800002080B588B002AF0023F3
:10088C007B61C3E00023FB740023FB600023BB608F
:10089C0072B600BF62497A6913469B0013449B00F1
:1008AC000B4401331B78DBB2002B28D00123FB74E3
:1008BC005B497A6913469B0013449B000B4401333C
:1008CC0000221A7056497A6913469B0013449B0008
:1008DC000B4400221A7052497A6913469B00134448
:1008EC009B000B4404331B68FB604D497A6913462B
:1008FC009B0013449B000B4408331B68BB6062B61F
:10090C0000BFFB7C002B7ED0BA68FB68D31A7B60DF
:10091C007B68B3F5FA7F3CD341497A6913469B0057
:10092C0013449B000B44103302221A707A687969C5
:10093C003C4805F0F5FF7B69002B03D07B69012B4C
:10094C0006D060E0384806F053F802F097FE5AE003
:10095C000020FFF7F1FE00F08FF901230093012333
:10096C0000220121314800F0DBF901F07BF902F0A3
:10097C0025F803467B802E4B1B6800225A622D4BB8
:10098C001B6800225A627B8819462B4805F0C8FF69
:10099C0039E023497A6913469B0013449B000B44AE
:1009AC00103301221A707A687969244805F0B8FF6F
:1009BC007B69002B03D07B69012B16D023E02048E8
:1009CC0004F0BEFC1E4B1B6800225A621D4B002219
:1009DC001A700020FFF7B0FE1B4806F009F8002043
:1009EC0000F082F902F048FD0DE0184806F000F81E
:1009FC00104B1B6800225A6200F044FB0346184659
:100A0C0000F0AEFA00BF7B6901337B617B69012B7F
:100A1C007FF738AF00BF00BF1837BD4680BD00BFA1
:100A2C00D8000020087B00082C7B00084C7B0008B9
:100A3C00E40100202C0200205C7B0008A87B00084D
:100A4C0074020020B0230020CC7B0008E87B000857
:100A5C0080B485B000AF0346FB71FA790C4913469C
:100A6C009B0013449B000B4410331B78FB73FA79E7
:100A7C00074913469B0013449B000B441033002280
:100A8C001A70FB7B18461437BD4680BC704700BFFC
:100A9C00D800002080B500AF01F04CF90D4B5B780D
:100AAC000133DAB20C4B1A700A4B1B781A468023AE
:100ABC0093FBF2F3DAB2094B1A70064B5B781A46C9
:100ACC00402393FBF2F3DBB2013BDAB2044B1A7016
:100ADC0000BF80BD1084000881010020820100202D
:100AEC008301002080B582B002AF012300930E2356
:100AFC0080220021002001F055FB002300930B23E2
:100B0C007D220321022001F04DFB0421042001F081
:100B1C00C5FA464B012200920ECB454801F098FADB
:100B2C00424B5B785B00DAB2424B1A701421032003
:100B3C0001F0B4FA3D4B012200920ECB3E4801F07D
:100B4C0087FA3A4B5B781A46384B1B783B493C4842
:100B5C0005F08CFF354B5B781A4652001344DBB220
:100B6C000133DAB2334B1A701D21032001F096FACF
:100B7C002E4B012200920ECB314801F069FA314B19
:100B8C001B781A4630492E4805F070FF274B5B78CE
:100B9C009B00DBB20233DAB2264B1A7026210320FB
:100BAC0001F07CFA214B012200920ECB244801F07B
:100BBC004FFA264B1B781A462549214805F056FF5B
:100BCC001A4B5B781A4692001344DBB20333DAB249
:100BDC00184B1A702F21032001F060FA134B0122DD
:100BEC0000920ECB164801F033FA4FF400721949FB
:100BFC00134805F03BFF0D4B5B781A46520013442B
:100C0C005B00DBB20433DAB20A4B1A7038210320D2
:100C1C0001F044FA054B012200920ECB084801F07A
:100C2C0017FA01F009F900BFBD4680BD1084000819
:100C3C000000002080010020087C00081C7C0008BB
:100C4C000001002082010020307C0008830100207C
:100C5C00487C0008607C000880B582B000AF034679
:100C6C00FB71FB79184601F0CFF801F0E5F800BFF5
:100C7C000837BD4680BD000080B582B002AF0020B1
:100C8C00FFF7EAFF012300220021002000F0ACF85E
:100C9C00134B1B781A46D200D31A5B00D8B2104BF8
:100CAC001B781A46D200D31A5B00DAB20C4B5B7875
:100CBC00023BDBB201210091002101F007FA00F0A8
:100CCC00D7F90346184600F04BF901230093012392
:100CDC0000220121034800F023F800BFBD4680BD6F
:100CEC0010840008747C000880B483B000AF034605
:100CFC00FB71054AFB791370034B1B7818460C37B4
:100D0C00BD4680BC704700BF8401002080B400AF9A
:100D1C00024B1B781846BD4680BC704784010020EE
:100D2C0080B586B002AF7860084611461A46034675
:100D3C00FB700B46BB7013467B70274B1B78BA7845
:100D4C0002FB03F3BB737868FFF7FAF90346DAB2D8
:100D5C00BB781344FB737B68002B04D01F4B1B78B0
:100D6C00FA7B9A4202D94FF0FF3331E01C4B1B78CF
:100D7C00FA789A4203D31A4B1B78013BFB70194B40
:100D8C001B78FA7802FB03F3DAB2BB7B11461846E8
:100D9C0001F084F9104B7A7800920ECB786801F050
:100DAC0057F93B7E002B10D006E00B4B7A78009263
:100DBC000ECB202001F0BAF8FB7B5A1CFA731A46B2
:100DCC00064B1B78013B9A42EFDB01F035F8002310
:100DDC0018461037BD4680BD1084000882010020E3
:100DEC00830100208101002080B586B002AF3960FC
:100DFC0011461A460346FB710B46BB801346BB716A
:100E0C003B683D4A934201D93B4B3B60FB79002B3D
:100E1C001FD13A6839493A4805F028FE002300935F
:100E2C000123002200213648FFF77AFF3448FFF7F0
:100E3C0087F90346FB7306E0324B012200920ECB7E
:100E4C00202001F073F8FB7B5A1CFA730C2BF3D99E
:100E5C004BE0FB79012B1FD13A682B49284805F050
:100E6C0005FE002300930123002200212448FFF7F4
:100E7C0057FF2348FFF764F90346BB7306E0214B89
:100E8C00012200920ECB202001F050F8BB7B5A1CA3
:100E9C00BA730C2BF3D928E0FB79022B25D102F085
:100EAC009FFB0346184600F085F8BA883B68174943
:100EBC00134805F0DBFD00230093012301220021E0
:100ECC000F48FFF72DFF0E48FFF73AF903467B73E7
:100EDC0006E00C4B012200920ECB202001F026F8EC
:100EEC007B7B5A1C7A730C2BF3D900F0A5FF0023E3
:100EFC0018461037BD4680BDFFE0F505847C000820
:100F0C000001002010840008907C00089C7C0008E4
:100F1C0080B586B002AF78600B46FB70FA78002380
:100F2C000093012300217868FFF7FAFE7868FFF739
:100F3C0007F90346FB7306E0084B012200920ECB27
:100F4C00202000F0F3FFFB7B5A1CFA730C2BF3D917
:100F5C00002318461037BD4680BD00BF1084000822
:100F6C0080B584B002AF0346FB71FB79184600F0E4
:100F7C00B5F80123009301230F220021FFF7D0FEC7
:100F8C00FB791BB218460837BD4680BD80B584B0CE
:100F9C0002AF0346FB71064B1978002300934023E4
:100FAC007C22002001F0FEF800BF0837BD4680BD52
:100FBC008101002080B584B002AF0346FB71002193
:100FCC00002001F06BF81B4B012200920ECB7C2011
:100FDC0000F0ACFFFB79002B14D101220221002080
:100FEC0000F052FF01220121012000F04DFF0122EF
:100FFC000121032000F048FF01220221042000F00F
:10100C0043FF13E001220421002000F03DFF0122E8
:10101C000521012000F038FF01220521032000F0FA
:10102C0033FF01220421042000F02EFF00BF0837FB
:10103C00BD4680BD1084000880B483B000AF034669
:10104C00FB71FA79084BA3FB021319090B461B0120
:10105C000B44D31ADAB2054B1A70044B1B781846A2
:10106C000C37BD4680BC7047F1F0F0F085010020D4
:10107C0080B400AF024B1B781846BD4680BC70474D
:10108C008501002080B400AF044B00221A70034B82
:10109C001B781846BD4680BC704700BF85010020F8
:1010AC0080B584B000AF0346FB80FB889B089AB2E6
:1010BC00094BA3FB021319090B461B010B44D31A52
:1010CC009BB2FB73FB7B1846FFF7B6FFFB7B184606
:1010DC001037BD4680BD00BFF1F0F0F080B582B096
:1010EC0000AF0346FB71FB79002B01D1064B06E0E8
:1010FC00FB79064A0821064805F082FC044B184689
:10110C000837BD4680BD00BFA47C0008AC7C00083D
:10111C008801002080B582B000AF02F0D3FB00F054
:10112C00B5F800F05DFA00F0F7F800F005FA00F001
:10113C0021F900F02BFA00F071F900F0C3F9FFF778
:10114C00A9FCFFF7CFFC41F2883002F01DFCFFF741
:10115C0093FD3C213D4804F013FA3C213C4804F03B
:10116C000FFA3C4B1B686FF001021A6100F0E2FCB5
:10117C0001F00CFC384805F03BFC01F01FFC034669
:10118C001946364805F0CCFB354B5B781A464023A4
:10119C0093FBF2F3013B1946324805F0C1FB0122E7
:1011AC003149324804F06BFD314805F021FC274BE6
:1011BC001B685B6A9AB22F4B1A802F4B1B889BB211
:1011CC00002B2DD02D4B1B889BB21A462C4B53F861
:1011DC002230C3F317237B60284B1B889BB25A1C0D
:1011EC0091B2264A11801A46254B13F82230FB7017
:1011FC00214B1B889BB2013B9AB21F4B1A801F4B91
:10120C001B889BB2B3F5006F02D31C4B00221A80D3
:10121C00FB787968184600F0F1FA0346194A136016
:10122C0000F07CFC0346002B04D0164B1B681846C0
:10123C0001F020FC144B1B78DBB2002BBDD001F06D
:10124C00EDFD114B00221A70B7E700BFE40100203E
:10125C002C02002074020020B47C0008DC7C000806
:10126C00108400080C7D000854030020BC020020F0
:10127C00307D0008A823002050030020A603002086
:10128C00A8030020AC230020B023002080B590B030
:10129C0000AF07F1180328220021184605F0E0FCE6
:1012AC003B1D00221A605A609A60DA601A610123B1
:1012BC00BB614FF48033FB6100233B620123BB62B3
:1012CC0002237B634FF48033BB634FF4E013FB6367
:1012DC0007F11803184603F0D1FB0346002B01D08D
:1012EC0000F086FA0F237B600223BB600023FB60B7
:1012FC004FF480633B6100237B613B1D0221184648
:10130C0003F03EFE0346002B01D000F071FA00BF43
:10131C004037BD4680BD000080B500AF124B134A6C
:10132C001A60114B124A5A600F4B00229A600E4BF6
:10133C000022DA600C4B4FF480421A610A4B0022F7
:10134C005A61094B00229A61074B0022DA61064B65
:10135C0000221A62044802F0E5FE0346002B01D07D
:10136C0000F046FA00BF80BD900100200054004000
:10137C00A086010080B58CB000AF07F10C032422CD
:10138C000021184605F06CFC3B1D00221A605A60C7
:10139C00214B4FF080421A601F4B00225A601E4BAB
:1013AC0000229A601C4B4FF6FF72DA601A4B002237
:1013BC001A61194B00229A610323FB6002233B61E3
:1013CC0001237B610023BB610423FB6102233B628D
:1013DC0001237B620023BB620423FB6207F10C0335
:1013EC0019460D4804F02AF80346002B01D000F0F2
:1013FC00FFF900237B600023BB603B1D19460648A8
:10140C0004F0F2FA0346002B01D000F0F1F900BF12
:10141C003037BD4680BD00BFE401002080B58CB0E4
:10142C0000AF07F10C0324220021184605F018FC2C
:10143C003B1D00221A605A60204B214A1A601F4B38
:10144C0000225A601D4B00229A601C4B4122DA602C
:10145C001A4B00221A61194B00229A610323FB607C
:10146C0002233B6101237B610023BB610423FB61ED
:10147C0002233B6201237B620023BB620423FB62D9
:10148C0007F10C0319460D4803F0D8FF0346002B57
:10149C0001D000F0ADF900237B600023BB603B1D45
:1014AC001946064804F0A0FA0346002B01D000F0C0
:1014BC009FF900BF3037BD4680BD00BF2C02002015
:1014CC000004004080B582B000AF3B4600221A6099
:1014DC005A60174B174A1A60154B4FF61F525A6039
:1014EC00134B00229A60124B40F2F312DA60104B4D
:1014FC0000221A610E4B00229A6108210C4803F05D
:10150C004DFF0346002B01D000F072F900233B6025
:10151C0000237B603B461946054804F065FA0346F8
:10152C00002B01D000F064F900BF0837BD4680BD28
:10153C00740200200008004080B500AF114B124A25
:10154C001A60104B47F612225A600E4B00229A601A
:10155C000C4B0022DA600B4B00221A61094B0C2257
:10156C005A61084B00229A61064B0022DA61054849
:10157C0004F0AAFA0346002B01D000F039F900BFA1
:10158C0080BD00BFBC0200200038014080B500AF18
:10159C00114B124A1A60104B4FF4E1325A600E4B49
:1015AC0000229A600C4B0022DA600B4B00221A616D
:1015BC00094B0C225A61084B00229A61064B0022FF
:1015CC00DA61054804F080FA0346002B01D000F0E4
:1015DC000FF900BF80BD00BF040300200044004091
:1015EC0080B588B000AF07F1100300221A605A6072
:1015FC009A60DA60324B9B69314A43F01003936175
:10160C002F4B9B6903F01003FB60FB682C4B9B6911
:10161C002B4A43F020039361294B9B6903F0200371
:10162C00BB60BB68264B9B69254A43F0040393615E
:10163C00234B9B6903F004037B607B68204B9B6905
:10164C001F4A43F0080393611D4B9B6903F0080389
:10165C003B603B6801224FF400511A4802F019FD1F
:10166C004FF400533B6101237B610023BB610223D8
:10167C00FB6107F110031946124802F06FFB30238F
:10168C003B61114B7B610123BB6107F110031946D0
:10169C000E4802F063FB002201210A2002F06FFACF
:1016AC000A2002F088FA00220121172002F067FAC2
:1016BC00172002F080FA00BF2037BD4680BD00BF66
:1016CC0000100240001001400000311000080140E1
:1016DC0080B500AF044B1B680133034A136000F064
:1016EC0069FA00BF80BD00BF4C03002080B582B0FA
:1016FC0000AF7860391D4FF0FF330122034804F02E
:10170C0033FA7B6818460837BD4680BD04030020B9
:10171C0080B582B000AF78607B681B68224A934228
:10172C003ED102F027F90346204A128892B21046A5
:10173C0023F07F421E4983000B44D1B2587800201D
:10174C0001435970110AC9B298780020014399706D
:10175C00120CD2B2D97800210A43DA70134B1B88D1
:10176C009BB25A1C91B2114A11801A46114B19782E
:10177C000F4B03F82210104B1B889BB201339AB20B
:10178C000D4B1A80094B1B889BB2B3F5006F02D32B
:10179C00064B00221A8001220649084804F06FFA11
:1017AC0000BF0837BD4680BD00380140A4030020AF
:1017BC00A80300205403002050030020BC0200208A
:1017CC0080B582B000AF78607B681B68064A934294
:1017DC0005D1064B01221A70786803F0B1FD00BFE9
:1017EC000837BD4680BD00BF00080040B023002074
:1017FC0080B400AF72B600BF00BFFDE780B584B007
:10180C0000AF03463960FB71FB79F72B07D9FB79E5
:10181C0000220021184600F0A1F8494B8CE0FB791E
:10182C00F02B09D1464A3B685360464B01221A7093
:10183C00454B00221A701CE0FB79F72B07D1414B6A
:10184C001B78002B03D03F4B00221A7011E03D4B4C
:10185C001B78002B0DD03C4B1B780F2B09D83A4B27
:10186C001B785A1CD1B2384A11701946374AFB7989
:10187C00535497F90730002B25DA314A3B685360F3
:10188C00334AFB791370334B00221A7000F0F6F9CF
:10189C00034683F00103DBB2002B04D0386800F060
:1018AC00CDF900F0EBF92A4B1B7803F0F003C02BB9
:1018BC0005D0274B1B7803F0F003D02B01D1204B24
:1018CC003AE01F4B38E0224B1B78002B01D11C4B0C
:1018DC0032E0204B1B785A1CD1B21E4A11701946AB
:1018EC001D4AFB7953541A4B1B7803F0F003C02BA1
:1018FC0005D0174B1B7803F0F003D02B01D101233B
:10190C0000E00223FB73134B1B78FA7B9A4212D82C
:10191C000F4B1878104B1978FB7B022B02D10E4B16
:10192C005B7800E000231A4600F018F800F0DEF8AF
:10193C00084B00221A70024B18461037BD4680BD6A
:10194C00B4230020C7230020D8230020C823002064
:10195C00C1230020C6230020C423002080B586B0FC
:10196C0002AF0346FB710B46BB7113467B71FB79CF
:10197C0003F00F03DBB20133FB73FB7923F00F038E
:10198C00BB733C4AFB7B13723A4AFB791370394A9E
:10199C00BB795370374A7B79937007F10802BB7996
:1019AC001146184600F076F807F108031846FEF7C2
:1019BC00C7FB0346032B0ED107F108031846FEF7AD
:1019CC00BFFB03461A4607F1080313442A491A467B
:1019DC000B461B881380BB7BB02B2DD0B02B37DC78
:1019EC00802B1CD0902B33D17B79002B0CD0FA7B25
:1019FC007B79019307F10803009313461F4A1621C4
:101A0C001F4804F0FDFF2FE0FA7B07F10803009359
:101A1C0013461C4A16211A4804F0F2FF24E0FA7B04
:101A2C007B79019307F1080300931346164A16219C
:101A3C00134804F0E5FF17E0F97BBB797A79019242
:101A4C0000930B46114A16210D4804F0D9FF0BE008
:101A5C00F979BB797A79019200930B460C4A1621DD
:101A6C00074804F0CDFF00BF054B18461037BD46A4
:101A7C0080BD00BFB4230020787D00087C7D000869
:101A8C00DC230020907D0008A07D0008B47D0008B8
:101A9C00C47D000880B584B000AF03463960FB718B
:101AAC00FB790F4AA2FB0323DB08DBB2013BFB7380
:101ABC00FA790B4BA3FB0213D9080B465B000B44C2
:101ACC009B00D31ABB73BB7B064A52F82320FB7BCB
:101ADC000549386804F0CAFF00BF1037BD4680BD09
:101AEC00ABAAAAAA18000020D47D000880B400AFCD
:101AFC00034B01221A7000BFBD4680BC704700BF6B
:101B0C00C023002080B400AF034B00221A7000BF2A
:101B1C00BD4680BC704700BFC023002080B400AF1E
:101B2C00034B1B78DBB21846BD4680BC704700BF28
:101B3C00C023002080B400AF034B00221A7000BFFA
:101B4C00BD4680BC704700BF5424002080B487B0D1
:101B5C0000AF78603960154B1B78072B20D8134BDE
:101B6C001B785A1CD1B2114A11701A4610491346EF
:101B7C005B0013449B000B44796819600C491346B5
:101B8C005B0013449B000B4404333968196008490B
:101B9C0013465B0013449B000B44083300221A606D
:101BAC0000BF1C37BD4680BC704700BF54240020CA
:101BBC00F423002080B582B000AF0023FB712DE030
:101BCC001B4B1968FA791B4813465B0013449B00A6
:101BDC00034408331B68C91AFA79164813465B008C
:101BEC0013449B00034404331B68994213D3FA79C2
:101BFC000F4B19680F4813465B0013449B000344BA
:101C0C0008331960FA790B4913465B0013449B00A7
:101C1C000B441B689847FB790133FB71064B1B780F
:101C2C00FA799A42CCD300BF00BF0837BD4680BDBD
:101C3C004C030020F42300205424002080B483B0F3
:101C4C0000AF7860054B01221A70054A7B6813605F
:101C5C0000BF0C37BD4680BC704700BF5524002028
:101C6C005824002080B400AF034B00221A7000BF30
:101C7C00BD4680BC704700BF5524002080B400AF27
:101C8C00024B1B781846BD4680BC7047552400207B
:101C9C0080B483B000AF7860084B1B7883F00103ED
:101CAC00DBB2002B01D0002303E0054B1B687A68E4
:101CBC00D31A18460C37BD4680BC704755240020FB
:101CCC005824002080B400AF00BFBD4680BC7047D4
:101CDC0080B586B004AF0346FB714FF0FF3302931F
:101CEC0001230193FB1D009301230022782103485B
:101CFC0002F05CFB00BF0837BD4680BD90010020A0
:101D0C0080B586B004AF786039603B689BB24FF009
:101D1C00FF32029201937B680093012340227821C9
:101D2C00034802F043FB00BF0837BD4680BD00BF2F
:101D3C009001002080B500AFFFF7C4FF642001F0D4
:101D4C0023FE002000F090FA2020FFF7C1FF0020B6
:101D5C00FFF7BEFFB020FFF7BBFFC820FFF7B8FFAF
:101D6C000020FFF7B5FF1020FFF7B2FF4020FFF770
:101D7C00AFFFFF2000F064FAA120FFF7A9FFA62017
:101D8C00FFF7A6FFA820FFF7A3FF3F20FFF7A0FF58
:101D9C00A420FFF79DFFD320FFF79AFF0020FFF749
:101DAC0097FFD520FFF794FFF020FFF791FFD92084
:101DBC00FFF78EFF2220FFF78BFFDA20FFF788FF5B
:101DCC001220FFF785FFDB20FFF782FF2020FFF7B3
:101DDC007FFF8D20FFF77CFF1420FFF779FF012098
:101DEC0000F042FA002000F00FF800F025F8054B47
:101DFC0000221A80034B00225A80024B01221A71D6
:101E0C0000BF80BD5C28002080B582B000AF0346C7
:101E1C00FB71FB79002B01D1002300E0FF234FF471
:101E2C0080621946034804F01BFF00BF0837BD460B
:101E3C0080BD00BF5C24002080B582B000AF0023C1
:101E4C00FB7116E0FB79503BDBB21846FFF740FF05
:101E5C000020FFF73DFF1020FFF73AFFFB79DB0175
:101E6C00084A134480211846FFF74AFFFB790133D7
:101E7C00FB71FB79072BE5D900BF00BF0837BD46C6
:101E8C0080BD00BF5C24002080B483B000AF03464B
:101E9C00FB710B46BB7113467B7197F90730002B16
:101EAC003DDBBB793F2B3AD87B79012B1AD1FA79E0
:101EBC00BB79DB08D8B20346DB0113441A4AD35C66
:101ECC005AB2BB7903F00703012101FA03F35BB2A9
:101EDC00134359B2FA790346DB011344C9B2124ACF
:101EEC00D1541DE0FA79BB79DB08D8B20346DB018B
:101EFC0013440D4AD35C5AB2BB7903F0070301219A
:101F0C0001FA03F35BB2DB435BB2134059B2FA79CB
:101F1C000346DB011344C9B2034AD15400E000BFAD
:101F2C000C37BD4680BC70475C24002090B589B04E
:101F3C0000AF0446384680E80E002346FB73FB7B5B
:101F4C001F2B02D9FB7B7E2B01D9002379E0BB68C8
:101F5C00002B05D0BA68FB7B203B13441B7800E0B8
:101F6C003B78FB75394B1B881A46FB7D1344802B41
:101F7C0006DC364B5B881A467B781344402B01DD1C
:101F8C0000235EE00023FB614DE07A68FB7B203B85
:101F9C00797801FB03F31946FB690B445B0013448E
:101FAC001B883B610023BB6136E03A69BB6902FACE
:101FBC0003F303F40043002B13D0244B1B88DAB239
:101FCC00BB69DBB21344D8B2204B5B88DAB2FB6935
:101FDC00DBB21344DBB297F830201946FFF754FFFD
:101FEC0017E01A4B1B88DAB2BB69DBB21344D8B2C8
:101FFC00164B5B88DAB2FB69DBB21344D9B297F8A3
:10200C003030002B0CBF01230023DBB21A46FFF744
:10201C003BFFBB690133BB61FB7DBA699A42C4D3F8
:10202C00FB690133FB617B781A46FB699342ACD3A5
:10203C00064B1A88FB7D9BB213449AB2034B1A8051
:10204C00FB7B18462437BD4690BD00BF5C280020A2
:10205C0080B586B002AFF860384680E80E0013E019
:10206C00FB6818783B7E00933B460ECBFFF75EFF78
:10207C0003461A46FB681B789A4202D0FB681B7811
:10208C0008E0FB680133FB60FB681B78002BE7D191
:10209C00FB681B7818461037BD4680BD80B483B0F2
:1020AC0000AF03460A46FB711346BB71FB799AB22B
:1020BC00054B1A80BB799AB2034B5A8000BF0C3780
:1020CC00BD4680BC704700BF5C28002090B589B02D
:1020DC0000AF0446084611461A462346FB710346D8
:1020EC00BB710B467B7113463B717A79FB79D31A22
:1020FC00002BB8BF5B42BB613A79BB79D31A002B7A
:10210C00B8BF5B427B61FA797B799A4201D2012399
:10211C0001E04FF0FF333B61BA793B799A4201D22F
:10212C00012301E04FF0FF33FB60BA697B69D31ADE
:10213C00FB6197F8302039797B791846FFF7A4FEBC
:10214C0024E097F83020B979FB791846FFF79CFE0C
:10215C00FB695B00BB607B695B42BA689A4208DD35
:10216C00FA697B69D31AFB613B69DAB2FB791344D8
:10217C00FB71BA68BB699A4208DAFA69BB69134405
:10218C00FB61FB68DAB2BB791344BB71FA797B79DA
:10219C009A42D6D1BA793B799A42D2D100BF243730
:1021AC00BD4690BD90B585B000AF044608461146BB
:1021BC001A462346FB710346BB710B467B711346D3
:1021CC003B71FA797B79934228BF13467B737A79FA
:1021DC00FB79934238BF13463B73BA793B799342F0
:1021EC0028BF1346FB723A79BB79934238BF13462A
:1021FC00BB72FB7AFB7317E07B7BBB7309E097F830
:10220C002020F97BBB7B1846FFF73EFEBB7B0133DE
:10221C00BB73BA7B3B7B9A4203D897F90E30002BE9
:10222C00EDDAFB7B0133FB73FA7BBB7A9A4203D862
:10223C00FB7B3F2BE0D900BF00BF1437BD4690BDE0
:10224C0080B584B000AF0346FB718123FB73FB7B2D
:10225C001846FFF73DFDFB791846FFF739FD00BF27
:10226C001037BD4680BD000080B584B000AF03467A
:10227C00FB71FB79002B05D0AF23FB73084B0122BC
:10228C005A7104E0AE23FB73054B00225A71FB7BA1
:10229C001846FFF71DFD00BF1037BD4680BD00BFBF
:1022AC005C28002080B485B000AF154B9B69144AA4
:1022BC0043F001039361124B9B6903F00103BB6074
:1022CC00BB680F4BDB690E4A43F08053D3610C4B58
:1022DC00DB6903F080537B607B680A4B5B68FB60B7
:1022EC00FB6823F0E063FB60FB6843F00073FB606A
:1022FC00044AFB68536000BF1437BD4680BC70476E
:10230C00001002400000014080B588B000AF78603A
:10231C0007F1100300221A605A609A60DA607B6839
:10232C001B68154A934223D1144B9B69134A43F003
:10233C0008039361114B9B6903F00803FB60FB6876
:10234C00C0233B6112237B610323FB6107F1100364
:10235C0019460B4801F002FD084BDB69074A43F4B0
:10236C000013D361054BDB6903F40013BB60BB683E
:10237C0000BF2037BD4680BD005400400010024015
:10238C00000C014080B58AB000AF786007F11803EB
:10239C0000221A605A609A60DA607B681B68B3F19D
:1023AC00804F24D1284BDB69274A43F00103D361CA
:1023BC00254BDB6903F001037B617B69224B9B6935
:1023CC00214A43F0040393611F4B9B6903F0040300
:1023DC003B613B690323BB610023FB6101233B622F
:1023EC0007F118031946194801F0B8FC28E07B687E
:1023FC001B68174A934223D1134BDB69124A43F0F3
:10240C000203D361104BDB6903F00203FB60FB6832
:10241C000D4B9B690C4A43F0040393610A4B9B6977
:10242C0003F00403BB60BB68C023BB610023FB61EA
:10243C0001233B6207F118031946044801F08EFC96
:10244C0000BF2837BD4680BD001002400008014087
:10245C000004004080B584B000AF78607B681B68D6
:10246C000D4A934213D10D4BDB690C4A43F0040324
:10247C00D3610A4BDB6903F00403FB60FB680022A9
:10248C0002211E2001F07BFB1E2001F094FB00BFFB
:10249C001037BD4680BD00BF000800400010024050
:1024AC0080B58AB000AF786007F1180300221A607B
:1024BC005A609A60DA607B681B683B4A93423AD157
:1024CC003A4B9B69394A43F480439361374B9B6980
:1024DC0003F480437B617B69344B9B69334A43F043
:1024EC0004039361314B9B6903F004033B613B692B
:1024FC004FF40073BB610223FB6103237B6207F182
:10250C00180319462A4801F029FC4FF48063BB617B
:10251C000023FB6100233B6207F118031946244892
:10252C0001F01CFC00220021252001F028FB2520B5
:10253C0001F041FB34E07B681B681E4A93422FD1AB
:10254C001A4BDB69194A43F40033D361174BDB692F
:10255C0003F40033FB60FB68144B9B69134A43F094
:10256C0004039361114B9B6903F00403BB60BB68CC
:10257C000423BB610223FB6103237B6207F1180375
:10258C0019460B4801F0EAFB0823BB610023FB61F1
:10259C0000233B6207F118031946054801F0DEFBE6
:1025AC0000BF2837BD4680BD0038014000100240F6
:1025BC00000801400044004080B584B000AF0346E1
:1025CC00FB80FB88102B02D0202B12D023E0FB8841
:1025DC001946134801F046FD0346FB73FB7B002BA9
:1025EC000CBF01230023DBB219460020FEF7BEF816
:1025FC0011E0FB8819460A4801F034FD0346FB73D1
:10260C00FB7B002B0CBF01230023DBB219460120FE
:10261C00FEF7ACF800BF00BF1037BD4680BD00BF51
:10262C000008014080B400AF00BFFDE780B400AFEC
:10263C0000BFFDE780B400AF00BFFDE780B400AF82
:10264C0000BFFDE780B400AF00BFFDE780B400AF72
:10265C0000BFBD4680BC704780B400AF00BFBD4614
:10266C0080BC704780B400AF00BFBD4680BC7047D3
:10267C0080B500AF01F0B9FA01F06AF900BF80BD76
:10268C0080B500AF102001F035FD00BF80BD80B5D6
:10269C0000AF202001F02EFD00BF80BD80B500AF43
:1026AC00024802F0FBFF00BF80BD00BF7402002097
:1026BC0080B500AF024803F007FB00BF80BD00BF30
:1026CC00BC02002080B586B000AFF860B9607A60BB
:1026DC0000237B610AE0AFF300800146BB685A1C03
:1026EC00BA60CAB21A707B6901337B617A697B6804
:1026FC009A42F0DB7B6818461837BD4680BD80B522
:10270C0086B000AFF860B9607A6000237B6109E0A5
:10271C00BB685A1CBA601B781846FEF7E7FF7B694A
:10272C0001337B617A697B689A42F1DB7B681846DE
:10273C001837BD4680BD80B483B000AF78604FF0D1
:10274C00FF3318460C37BD4680BC704780B483B04D
:10275C0000AF786039603B684FF400525A60002338
:10276C0018460C37BD4680BC704780B483B000AFB0
:10277C007860012318460C37BD4680BC704780B486
:10278C0085B000AFF860B9607A6000231846143742
:10279C00BD4680BC7047000080B586B000AF786045
:1027AC00144A154BD31A7B617B693B61134B1B6835
:1027BC00002B02D1114B124A1A60104B1A687B681D
:1027CC0013443A699A4207D204F098FA03460C2251
:1027DC001A604FF0FF3309E0084B1B68FB60074B96
:1027EC001A687B681344054A1360FB68184618374F
:1027FC00BD4680BD0050002000040000642800206D
:10280C00F049002080B400AF00BFBD4680BC7047CB
:10281C0080B584B002AF4FF40051234801F051FC55
:10282C0001F020F8034683F00103DBB2002B36D015
:10283C001E4B1B8803F003039BB2002B02D1002319
:10284C003B701EE00023FB7108E0FB7908333B442E
:10285C002E2203F8082CFB790133FB71FA79134B08
:10286C001B88013B594203F0030301F0030158BFDD
:10287C004B429A42E9DDFB7908333B44002203F8D2
:10288C00082C0A4B1B8801339AB2084B1A80384625
:10289C000123009301230C220121FEF741FA00BF12
:1028AC000837BD4680BD00BF0010014068280020DD
:1028BC0080B582B000AF1E4B1B685B6A1BB2DA0F8F
:1028CC0013445B10FB801B4B1B685B6ABB80FA8854
:1028DC00194BB3F900309BB2D31A9BB27B80164ACA
:1028EC00FB881380B7F90230002B04D0B7F9023003
:1028FC00184600F037FB114BB3F90030B7F9042040
:10290C009A4210D0B7F9043019460D4804F008F873
:10291C00BB881846FEF7C4FB03461846FEF720FB9F
:10292C00064ABB88138000BF0837BD4680BD00BF78
:10293C00E40100202C0200206A2800206C280020D2
:10294C00DC7D000880B500AFFDF796FF0020FEF798
:10295C007FF80346012B02D0022B04D007E00020A5
:10296C00FDF7EAFE03E00020FDF7E6FE00BF0120C4
:10297C00FEF76EF80346012B02D0022B02D002E0C8
:10298C0000BF00E000BF00BF80BD000080B500AFFD
:10299C004FF4FA710648FFF7D9F815210548FFF7EF
:1029AC00D5F80D210448FFF7D1F800BF80BD00BF5A
:1029BC001D280008BD2800085129000880B58EB0DC
:1029CC0002AF254B254A1A60254B01221A700023B1
:1029DC000093012301224FF085414FF07E5000F00F
:1029EC00D3FE204B5B78023BDBB2002200928022AC
:1029FC0000217E20FFF7D6FB1B4B1A4600231360E9
:102A0C0053609360194B1A46002313605360936014
:102A1C00D3601361536193610023FB850BE00E4B74
:102A2C001B68FA8D1A800C4B1B6810330A4A136012
:102A3C00FB8D0133FB85FB8DB3F5007FEFD3064B8C
:102A4C00064A1A600A4B1B6800225A624FF4007344
:102A5C0018463037BD4680BD984800209828002085
:102A6C004C00002010840008702800207C280020D6
:102A7C00E401002080B582B000AF7860786800F087
:102A8C0009F8786800F086F8FFF73CF800BF0837C3
:102A9C00BD4680BD80B483B000AF7860394B1B68F5
:102AAC007A6852689A60374B1B687A68127A1A7384
:102ABC00344B1B687A6812789A70324B1B687A68B0
:102ACC005278DA702F4B1B687A6892781A712D4BFA
:102ADC001B6810332B4A13602A4B1B682A4A9342FB
:102AEC0002D3284B294A1A60294BB3F902309BB206
:102AFC0001339BB21AB2264B5A80254B01221A7015
:102B0C00234BB3F902309BB2B3F5007F09D3204BB2
:102B1C0001221A711E4BB3F902305B0ADAB21C4B5C
:102B2C005A711B4B1B79002B02D04FF4007303E03E
:102B3C00174BB3F902309BB2154AD380144BB3F93F
:102B4C0002309BB2013B9BB2C3F308039AB2104B09
:102B5C001A810F4B1B7983F00103DBB2002B03D0DE
:102B6C000B4B00225A8108E0094B1B8901339BB2A5
:102B7C00C3F308039AB2064B5A8100BF0C37BD460B
:102B8C0080BC704798480020984800209828002066
:102B9C007028002090B587B002AF7860FDF7DCFD9F
:102BAC000346002B03D0012B00F0A080CEE0694B34
:102BBC00B3F90230C3F308031846FDF77FFB034655
:102BCC004FF088411846FDF785FC0346FB60614BCE
:102BDC005B790133002B03F00103B8BF5B42DAB21F
:102BEC005C4B5B79002B14BF01230023DBB20093F9
:102BFC00134600224FF00001F86800F0C5FDFEF707
:102C0C0037FA0346002B07D0FEF732FA03461A4672
:102C1C007B681B7A9A4237D17B685B681846FFF752
:102C2C0037F8B860FEF772F803461C4600F0D8FC83
:102C3C0003460022B9682046FEF7D6F8464B1B78AF
:102C4C00012B02D10020FEF7A1F97B6818787B6874
:102C5C0059787B689B781A46FEF780FE3E4B1978B4
:102C6C000123009301230022FEF75AF83A4B1B78FC
:102C7C000133DAB2384B1A70374B1B78062B33D929
:102C8C00354B01221A702FE0344B5B78023BDBB2E0
:102C9C0000220092802200217E20FFF783FA304B25
:102CAC001B785A1CD1B22E4A117003F00103DBB20F
:102CBC00002B0BD0294B5B78023BDBB2012200923C
:102CCC00802203217E20FFF76DFA0AE0234B5B780C
:102CDC00023BDBB201220092802200217E20FFF712
:102CEC0061FAFFF7A9F831E000BF2FE01B4B5B78CE
:102CFC00023BDBB200220092802200217E20FFF7F3
:102D0C0051FA184B1B785A1CD1B2164A117003F0A9
:102D1C000103DBB2002B0BD0104B5B78023BDBB218
:102D2C0001220092802203217E20FFF73BFA0AE069
:102D3C000A4B5B78023BDBB201220092802200211D
:102D4C007E20FFF72FFAFFF777F800BF00BF14378C
:102D5C00BD4690BD702800204C0000201084000857
:102D6C009C4800209D48002080B584B000AF0346ED
:102D7C00FB800B46BB801346FB70FB88FB81BB883A
:102D8C00002B0BD1234B1B79002B04D0214BB3F917
:102D9C0002309BB201E04FF40073BB800023BB8177
:102DAC002DE0FB78012B08D1FA88BB89D31A9BB292
:102DBC001BB2C3F30803FB8109E0FA88BB891344F7
:102DCC009BB202339BB21BB2C3F30803FB81FEF729
:102DDC004FF90346002B0CD0FEF74AF9034619466F
:102DEC00B7F90E300C4A1B0113440C331B78994273
:102DFC0002D1B7F90E3008E0BB890133BB81BA8927
:102E0C00BB889A42CDD340F2012318461037BD46F9
:102E1C0080BD00BF702800209828002080B584B0A9
:102E2C0002AF4C4B1B8BFB8001237B718BE07B79BE
:102E3C00484A043332F913309BB2B3F5007F0AD9F8
:102E4C007B790133D9B2012300930123002242483C
:102E5C00FDF766FF7BE0FEF70BF90346002B2AD14A
:102E6C007B793C4A043332F913303C4A1B0113443E
:102E7C00023318787B79374A043332F91330374AE6
:102E8C001B011344033319787B79324A043332F92A
:102E9C001330324A1B01134404331B781A46FEF7D5
:102EAC005DFD7B790133D9B201230093012300220C
:102EBC00FDF736FF44E0FA88294B5B89D31A9BB2A5
:102ECC00C3F308037B807988B7F9063001221846D2
:102EDC00FFF74AFF0346FB80FB88B3F5007F0AD956
:102EEC007B790133D9B201230093012300221A48C4
:102EFC00FDF716FF2BE0B7F90630184A1B011344F7
:102F0C0002331878B7F90630144A1B011344033303
:102F1C001978B7F90630114A1B01134404331B7896
:102F2C001A46FEF71BFD7B790133D9B201230093BE
:102F3C0001230022FDF7F4FEFB88013B9BB2FB80D2
:102F4C007B7901337B717B79052B7FF670AF08376A
:102F5C00BD4680BD7C280020F07D0008982800200C
:102F6C007028002090B58BB002AF0346FB80A14BBC
:102F7C00B3F90230002B08D1012300930123002266
:102F8C0003219D48FDF7CCFE63E29C4B1B7883F03C
:102F9C000103DBB2002B45D0B7F90630002B00F350
:102FAC005782964B01221A70924BB3F902309AB2A7
:102FBC00924BDA808F4BDA88904B9A808F4B0022A1
:102FCC009A828E4B01229A76012000F0F9FA894BF5
:102FDC001B8901339BB21AB2884B5A80874AFB88F3
:102FEC00D382864BB3F902309AB2FB8813449BB25E
:102FFC001AB2824B5A80814BB3F902207F4B1A8351
:10300C007E4BB3F902007D4B9A887C4BB3F916309A
:10301C009BB213449BB201339BB21BB2194600F016
:10302C00E9FAB4E0754BB3F916309AB2FB88134445
:10303C009BB21AB2714BDA82704BDB881A466D4B1D
:10304C00B3F902309A4210D06A4BB3F902309AB2FB
:10305C006A4BDB88D31A9BB21AB2684B9A82654BC7
:10306C00B3F902309AB2654BDA80B7F90630002B0F
:10307C0043DD624B00225A70604BB3F916205F4B54
:10308C00B3F914309A4218DB5D4802F059F95C4BE5
:10309C001B6800225A625B4B00221A700020FDF75D
:1030AC0075FF0020FDF748FB544B00221A700020DE
:1030BC00FDF71AFE00F0E0F9CBE1504B00229A76B6
:1030CC00002000F07DFA4D4BB3F902309AB2FB8828
:1030DC0013449BB21AB2494B5A80484BB3F90200C5
:1030EC00464B9A88454BB3F916309BB213449BB2AE
:1030FC001BB2194600F07EFA49E0404BB3F916308A
:10310C001A463E4B9B885B429A421FDC3B4B9B888A
:10311C00C3F101039BB21AB2384BDA82354B5B898F
:10312C001AB2364B5A80354B01225A70334BB3F9D5
:10313C000200324B9A88314BB3F916309BB21344D0
:10314C009BB21BB2194600F055FA20E02B4B012222
:10315C009A76012000F034FA284BB3F902309AB277
:10316C00FB8813449BB21AB2244B5A80234BB3F9FD
:10317C000200224B9A88214BB3F916309BB21344B0
:10318C009BB201339BB21BB2194600F033FA0120FB
:10319C00FDF7D2FA194B9B88062B28BF06239BB24E
:1031AC00BB83144B1B7983F00103DBB2002B2DD0B6
:1031BC00124B9B881A464FF4604393FBF2F3124A6E
:1031CC0013600E4B9B881A460C4BB3F90230194610
:1031DC00084B5B89CB1AC3F30803D31A013B0A4A89
:1031EC00126802FB03F39B0A9BB20E339BB2FB8368
:1031FC0022E000BF70280020007E00087C28002000
:10320C0074020020B023002050000020924B70224A
:10321C001A60924BB3F902301A46914B5B89D31A60
:10322C00DB43C3F308038C4A126802FB03F39B0ACB
:10323C009BB20E339BB2FB83884BB3F91630002B39
:10324C0013DAB7F91C30013B1846FDF73BF804467E
:10325C00B7F91E301846FDF735F8014600230093E8
:10326C0001230122204600F08FFA7C4BB3F9023087
:10327C00C3F308037B4A1B01134408331B6818462D
:10328C00FEF706FDB8610020FDF780FEFDF7F0FEAD
:10329C000346002B39D1714BB3F902309AB2704B03
:1032AC005B89D31A9BB2C3F308039AB26B4B9B7E18
:1032BC00B9690220FDF798FD684BB3F90230C3F3EE
:1032CC000803684A1B01134402331878634BB3F9A3
:1032DC000230C3F30803634A1B0113440333197808
:1032EC005E4BB3F90230C3F308035E4A1B0113446F
:1032FC0004331B781A46FEF731FB0123009301239C
:10330C0000220121FDF70CFD78E0544BB3F9183085
:10331C00C3F308031BB2514A927E00211846FFF7F3
:10332C0023FD03461A464D4B1A834C4BB3F9183008
:10333C009BB2B3F5007F50D2484BB3F91830C3F3AE
:10334C000803484A1B01134408331B681846FEF750
:10335C009FFCB861414BB3F918309AB2404B5B8972
:10336C00D31A9BB2C3F308039AB23C4B9B7EB96948
:10337C000220FDF739FD394BB3F91830C3F30803BC
:10338C00384A1B01134402331878344BB3F9183004
:10339C00C3F30803334A1B011344033319782F4B2F
:1033AC00B3F91830C3F308032E4A1B01134404333A
:1033BC001B781A46FEF7D2FA012300930123002250
:1033CC000121FDF7ADFC254BB3F918309BB2013B45
:1033DC009BB21AB2214B1A8310E0204BB3F9023086
:1033EC00C3F3080207F108031F49184603F03EFB1C
:1033FC0007F1080300211846FDF78AFD174B5B788F
:10340C00002B07D00123009301230022022117482F
:10341C00FDF786FCFDF7A0F90346002B02D0012B2B
:10342C000BD016E0124801F08BFF114B1B680022E9
:10343C005A62104B00221A700BE00D4801F080FF0D
:10344C000B4B1B6800225A62094801F027FF00E071
:10345C0000BF2437BD4690BD500000207C280020C2
:10346C007028002098280020147E0008F07D0008A9
:10347C0074020020B023002080B58AB002AF494B03
:10348C001B68494A9B1A1B119BB2013B9BB2FB83E5
:10349C00464B00221A70454B00225A70444BB3F92C
:1034AC000230C3F308031846FCF708FF03464FF03D
:1034BC0088411846FDF70EF80346BB613C4B5B791F
:1034CC000133002B03F00103B8BF5B42DAB2384B77
:1034DC005B79002B14BF01230023DBB2009313464E
:1034EC0000224FF00001B86900F04EF9314B5B78C7
:1034FC00023BDBB200220092802200217E20FEF7EC
:10350C0051FEFDF7B5FD0346002B0CD0FDF7B0FDC9
:10351C0003461946B7F91E30234A1B0113440C33DA
:10352C001B7899422CD10020FDF730FD224B012253
:10353C001A701C4B1B68103B98781A4B1B68103B7D
:10354C00D978184B1B68103B1B791A46FEF706FA04
:10355C0001230093012300220121FDF7E1FB114B14
:10356C001B68103B9B681846FEF792FB786100F0D5
:10357C0037F80346002279690020FDF735FC0BE093
:10358C00B7F91E203B1D0D49184603F06FFA3B1D81
:10359C0000211846FDF7BCFCB7F91E301846203741
:1035AC00BD4680BD98480020982800207C2800202B
:1035BC0070280020108400084C000020147E0008A5
:1035CC0080B483B000AF0346FB71044AFB791370DF
:1035DC0000BF0C37BD4680BC704700BF4D000020BB
:1035EC0080B400AF024B1B781846BD4680BC7047B8
:1035FC004D00002080B485B000AF03460A46FB8026
:10360C001346BB80FB88BB810023FB8118E0FB8940
:10361C00052B1BD8B7F90C2093B2013B9BB2BB8195
:10362C0093B203F500739BB21AB2FB89C2F3080282
:10363C0011B2114A043322F81310FB890133FB81B8
:10364C00FA89B7F904309A42E1DB0BE000BF09E0DC
:10365C00FB89094A043340F2012122F81310FB893B
:10366C000133FB81FB89052BF2D900BF00BF143756
:10367C00BD4680BC704700BF7C28002080B582B05E
:10368C0002AF3C4B01221A703A4B01229A76012070
:10369C00FFF796FF384B5B891AB2364B5A80354B85
:1036AC009B885B429BB21AB2324BDA82314BB3F934
:1036BC000200304B9A882F4BB3F916309BB213444F
:1036CC009BB201339BB21BB21946FFF793FF00204C
:1036DC00FDF75CFC274BB3F902309AB2264B5B89A1
:1036EC00D31A9BB2C3F308039AB2224B9B7E0021E0
:1036FC000220FDF779FB1F4BB3F90230C3F308032B
:10370C001E4A1B011344023318781A4BB3F90230CA
:10371C00C3F30803194A1B01134403331978154BDF
:10372C00B3F90230C3F30803144A1B0113440433E6
:10373C001B781A46FEF712F901230093012300228D
:10374C000121FDF7EDFA00230093012301224FF034
:10375C0085410B4800F018F80A4801F0F1FD094BBF
:10376C001B6800225A62074801F098FD00BFBD4655
:10377C0080BD00BF7C2800207028002098280020E5
:10378C000000A0407402002090B587B002AFF86032
:10379C00B96011461A460B46FB711346BB71BB79D7
:1037AC00002B0CBF01230023DBB2009340238022AB
:1037BC0008217D20FEF7F6FCFB79002B02D0012BB3
:1037CC0024D046E097F82030002B07D0012300933B
:1037DC000C23802208217D20FEF7E4FC2049F868A8
:1037EC00FCF7C4FD034619464FF08540FCF7B4FCCA
:1037FC0003461846FCF780FF0346D9B2BB79009309
:10380C00402380227D20FEF7CDFC22E04FF0854145
:10381C00B868FCF767FF0346002B02D04FF08543D6
:10382C00BB60B868FCF768FF0346DCB2F968B8689F
:10383C00FCF792FC03461846FCF75EFF0346DAB22F
:10384C00BB7900931346802221467D20FEF7AAFC0B
:10385C0000BFFEF7F1FA00BF1437BD4690BD00BFA4
:10386C000000604280B400AF024B1B781846BD4686
:10387C0080BC704770280020FEF7C4FF0B480C4931
:10388C000C4A002302E0D458C4500433C4188C42B0
:10389C00F9D3094A094C002301E013600432A24217
:1038AC00FBD303F031FAFDF735FC70470000002024
:1038BC00B80000208C840008B8000020F0490020DB
:1038CC00FEE7000080B500AF084B1B68074A43F0C9
:1038DC0010031360032000F047F90F2000F008F8E4
:1038EC00FEF7E0FC0023184680BD00BF002002401C
:1038FC0080B582B000AF7860124B1A68124B1B78FF
:10390C0019464FF47A73B3FBF1F3B2FBF3F3184699
:10391C0000F05FF90346002B01D001230EE07B6819
:10392C000F2B0AD8002279684FF0FF3000F027F9EE
:10393C00064A7B681360002300E001231846083711
:10394C00BD4680BD480000205800002054000020D7
:10395C0080B400AF054B1B781A46054B1B6813440B
:10396C00034A136000BFBD4680BC7047580000205E
:10397C00A048002080B400AF024B1B681846BD461F
:10398C0080BC7047A048002080B584B000AF786040
:10399C00FFF7F0FFB8607B68FB60FB68B3F1FF3F9B
:1039AC0005D00A4B1B781A46FB681344FB6000BF1A
:1039BC00FFF7E0FF0246BB68D31AFA689A42F7D8C1
:1039CC0000BF00BF1037BD4680BD00BF58000020AF
:1039DC0080B485B000AF78607B6803F00703FB60B0
:1039EC000C4BDB68BB60BA684FF6FF031340BB603F
:1039FC00FB681A02BB68134343F0BF6343F4003304
:103A0C00BB60044ABB68D36000BF1437BD4680BCA2
:103A1C00704700BF00ED00E080B400AF044BDB68E2
:103A2C001B0A03F007031846BD4680BC704700BF55
:103A3C0000ED00E080B483B000AF0346FB7197F952
:103A4C000730002B0BDBFB7903F01F02064997F9BB
:103A5C0007305B09012000FA02F241F8232000BF75
:103A6C000C37BD4680BC704700E100E080B483B0E9
:103A7C0000AF03463960FB7197F90730002B0ADB66
:103A8C003B68DAB20C4997F907301201D2B20B44F9
:103A9C0083F800230AE03B68DAB20849FB7903F0AB
:103AAC000F03043B1201D2B20B441A7600BF0C3741
:103ABC00BD4680BC704700BF00E100E000ED00E0B7
:103ACC0080B489B000AFF860B9607A60FB6803F02D
:103ADC000703FB61FB69C3F10703042B28BF042315
:103AEC00BB61FB690433062B02D9FB69033B00E085
:103AFC0000237B614FF0FF32BB6902FA03F3DA4318
:103B0C00BB681A407B699A404FF0FF317B6901FA20
:103B1C0003F3D9437B680B40134318462437BD4647
:103B2C0080BC704780B582B000AF78607B68013B89
:103B3C00B3F1807F01D301230FE00A4A7B68013B7C
:103B4C0053600F214FF0FF30FFF790FF054B002221
:103B5C009A60044B07221A60002318460837BD46AA
:103B6C0080BD00BF10E000E080B582B000AF78608F
:103B7C007868FFF72DFF00BF0837BD4680BD80B5C4
:103B8C0086B000AF0346B9607A60FB7300237B619B
:103B9C00FFF742FF78617A68B9687869FFF790FFA0
:103BAC00024697F90F3011461846FFF75FFF00BF2A
:103BBC001837BD4680BD80B582B000AF0346FB719F
:103BCC0097F907301846FFF735FF00BF0837BD4699
:103BDC0080BD80B582B000AF78607868FFF7A2FF37
:103BEC00034618460837BD4680BD80B500AFFDF7CB
:103BFC006FFD00BF80BD80B485B000AF786000233E
:103C0C00FB737B6893F82130DBB2022B08D07B6806
:103C1C0004229A637B68002283F82020012320E091
:103C2C007B681B681A687B681B6822F00E021A609E
:103C3C007B681B681A687B681B6822F001021A609B
:103C4C007B681A6C7B68DB6B012101FA02F25A600B
:103C5C007B68012283F821207B68002283F82020D6
:103C6C00FB7B18461437BD4680BC704780B584B0CA
:103C7C0000AF78600023FB737B6893F82130DBB2D4
:103C8C00022B05D07B6804229A630123FB7351E05D
:103C9C007B681B681A687B681B6822F00E021A602E
:103CAC007B681B681A687B681B6822F001021A602B
:103CBC007B681B68224A934229D07B681B68214A87
:103CCC00934222D07B681B681F4A93421AD07B68B0
:103CDC001B681E4A934212D07B681B681C4A934295
:103CEC000AD07B681B681B4A934202D14FF48013A5
:103CFC000EE04FF080730BE04FF4803308E04FF48C
:103D0C00805305E04FF4807302E0102300E00123A0
:103D1C00114A53607B68012283F821207B680022C2
:103D2C0083F820207B685B6B002B03D07B685B6B7C
:103D3C0078689847FB7B18461037BD4680BD00BF9E
:103D4C00080002401C0002403000024044000240C7
:103D5C00580002406C0002400000024080B48BB05E
:103D6C0000AF7860396000237B6200233B6269E11D
:103D7C0001227B6A02FA03F3FB613B681B68FA6958
:103D8C001340BB61BA69FB699A4240F058813B68A9
:103D9C005B689A4A93425ED0984A934275D8984A87
:103DAC00934258D0964A93426FD8964A934252D037
:103DBC00944A934269D8944A93424CD0924A934283
:103DCC0063D8924A934246D0904A93425DD8122BC4
:103DDC002AD8122B59D801A252F823F0633E0008BE
:103DEC003D3E00084F3E0008913E0008973E0008FB
:103DFC00973E0008973E0008973E0008973E000843
:103E0C00973E0008973E0008973E0008973E000832
:103E1C00973E0008973E0008973E0008973E000822
:103E2C00453E0008593E0008794A934213D02CE0D5
:103E3C003B68DB683B6229E03B68DB6804333B6230
:103E4C0024E03B68DB6808333B621FE03B68DB68BF
:103E5C000C333B621AE03B689B68002B02D10423B5
:103E6C003B6213E03B689B68012B05D108233B6246
:103E7C007B68FA691A6109E008233B627B68FA697E
:103E8C005A6103E000233B6200E000BFBB69FF2BDB
:103E9C0001D87B6801E07B6804337B61BB69FF2B35
:103EAC0002D87B6A9B0002E07B6A083B9B003B616B
:103EBC007B691A680F213B6901FA03F3DB431A4053
:103ECC00396A3B6901FA03F31A437B691A603B6850
:103EDC005B6803F08053002B00F0B1804D4B9B6965
:103EEC004C4A43F0010393614A4B9B6903F0010375
:103EFC00BB60BB68484A7B6A9B08023352F823308C
:103F0C00FB607B6A03F003039B000F2202FA03F3AE
:103F1C00DB43FA681340FB607B68404A934213D042
:103F2C007B683F4A93420DD07B683E4A934207D050
:103F3C007B683D4A934201D1032306E0042304E04D
:103F4C00022302E0012300E000237A6A02F003025C
:103F5C0092009340FA681343FB602F497B6A9B08DD
:103F6C000233FA6841F823203B685B6803F4801342
:103F7C00002B06D02D4B9A682C49BB6913438B60E0
:103F8C0006E02A4B9A68BB69DB43284913408B60D7
:103F9C003B685B6803F40013002B06D0234BDA68F4
:103FAC002249BB691343CB6006E0204BDA68BB693E
:103FBC00DB431E491340CB603B685B6803F4003362
:103FCC00002B06D0194B5A681849BB6913434B6038
:103FDC0006E0164B5A68BB69DB43144913404B602F
:103FEC003B685B6803F48033002B21D00F4B1A68BD
:103FFC000E49BB6913430B6021E000BF0000321077
:10400C0000003110000022100000211000001210DE
:10401C000000111000100240000001400008014097
:10402C00000C01400010014000140140000401404C
:10403C000B4B1A68BB69DB43094913400B607B6A65
:10404C0001337B623B681A687B6A22FA03F3002B0C
:10405C007FF48EAE00BF00BF2C37BD4680BC7047CE
:10406C000004014080B485B000AF78600B467B80C3
:10407C007B689A687B881340002B02D00123FB736A
:10408C0001E00023FB73FB7B18461437BD4680BC54
:10409C00704780B483B000AF78600B467B801346CA
:1040AC007B707B78002B03D07A887B681A6103E0E5
:1040BC007B881A047B681A6100BF0C37BD4680BC34
:1040CC00704780B485B000AF78600B467B807B680E
:1040DC00DB68FB607A88FB6813401A04FB68D943E1
:1040EC007B880B401A437B681A6100BF1437BD46AE
:1040FC0080BC704780B582B000AF0346FB80084B94
:10410C005A69FB881340002B06D0054AFB88536183
:10411C00FB881846FEF750FA00BF0837BD4680BD35
:10412C000004014080B584B000AF78607B68002B40
:10413C0001D101232BE17B6893F83D30DBB2002BDE
:10414C0006D17B68002283F83C207868FEF7DCF807
:10415C007B68242283F83D207B681B681A687B6887
:10416C001B6822F001021A607B681B681A687B6866
:10417C001B6842F400421A607B681B681A687B68F3
:10418C001B6822F400421A6001F042F8F8607B6868
:10419C005B68814A934207D8FB68804A934294BF7C
:1041AC0001230023DBB206E0FB687D4A934294BFF7
:1041BC0001230023DBB2002B01D00123E7E0FB68D5
:1041CC00784AA2FB03239B0CBB607B681B685B6873
:1041DC0023F03F017B681B68BA680A435A607B680E
:1041EC001B681B6A23F03F017B685B686A4A934239
:1041FC0002D8BB68013309E0BB684FF4967202FB2E
:10420C0003F3694AA2FB03239B0901337A68126802
:10421C000B4313627B681B68DB6923F44F4222F06B
:10422C00FF027B685B685C498B4219D8FB68591E9E
:10423C007B685B685B00B1FBF3F3591C40F6FC73C5
:10424C000B40002B0AD0FB68591E7B685B685B0037
:10425C00B1FBF3F30133C3F30B0351E004234FE041
:10426C007B689B68002B11D1FB68581E7B685968D2
:10427C000B465B000B44B0FBF3F30133C3F30B03AE
:10428C00002B0CBF01230023DBB212E0FB68581E8D
:10429C007B6859680B469B000B4499000B44B0FBA0
:1042AC00F3F30133C3F30B03002B0CBF01230023E7
:1042BC00DBB2002B01D0012322E07B689B68002B32
:1042CC000ED1FB68581E7B6859680B465B000B448B
:1042DC00B0FBF3F30133C3F30B0343F400430FE0E0
:1042EC00FB68581E7B6859680B469B000B44990071
:1042FC000B44B0FBF3F30133C3F30B0343F4404320
:10430C00796809681343CB617B681B681B6823F0D1
:10431C00C0017B68DA697B681B6A1A437B681B687F
:10432C000A431A607B681B689B6823F4034323F0E1
:10433C00FF037A6811697A68D26811437A68126847
:10434C000B4393607B681B68DB6823F0FF017B6881
:10435C005A697B689B691A437B681B680A43DA605D
:10436C007B681B681A687B681B6842F001021A6044
:10437C007B6800221A647B68202283F83D207B68CE
:10438C0000221A637B68002283F83E200023184623
:10439C001037BD4680BD00BFA08601007F841E0083
:1043AC00FF083D0083DE1B43D34D621080B588B0FF
:1043BC0002AFF860084611461A4603467B810B464D
:1043CC003B811346FB80FFF7D5FA7861FB6893F8C5
:1043DC003D30DBB2202B40F0D9807B690093192350
:1043EC0001226D49F86800F071F90346002B01D0E9
:1043FC000223CCE0FB6893F83C30012B01D1022363
:10440C00C5E0FB68012283F83C20FB681B681B6835
:10441C0003F00103012B07D0FB681B681A68FB68CB
:10442C001B6842F001021A60FB681B681A68FB6883
:10443C001B6822F400621A60FB68212283F83D207D
:10444C00FB68402283F83E20FB6800221A64FB685C
:10445C003A6A5A62FB68BA8C5A85FB685B8D9AB2D1
:10446C00FB681A85FB684D4ADA62F8883A897989C3
:10447C007B690193BB6A00930346F86800F090F8DF
:10448C000346002B52D0012381E07A69B96AF8689F
:10449C0000F036FA0346002B0DD0FB681B6C042B86
:1044AC0007D1FB681B681A68FB681B6842F4007232
:1044BC001A6001236BE0FB685B6A1A78FB681B6867
:1044CC001A61FB685B6A5A1CFB685A62FB681B8D9D
:1044DC00013B9AB2FB681A85FB685B8D9BB2013B72
:1044EC009AB2FB685A85FB681B685B6903F004038E
:1044FC00042B1BD1FB681B8D002B17D0FB685B6A50
:10450C001A78FB681B681A61FB685B6A5A1CFB68AB
:10451C005A62FB681B8D013B9AB2FB681A85FB68DB
:10452C005B8D9BB2013B9AB2FB685A85FB681B8D75
:10453C00002BAAD17A69B96AF86800F029FA034607
:10454C00002B0DD0FB681B6C042B07D1FB681B6880
:10455C001A68FB681B6842F400721A60012316E0AB
:10456C00FB681B681A68FB681B6842F400721A60CF
:10457C00FB68202283F83D20FB68002283F83E2054
:10458C00FB68002283F83C20002300E0022318463D
:10459C001837BD4680BD00BF020010000000FFFFB1
:1045AC0080B588B002AFF860084611461A4603463B
:1045BC007B810B463B811346FB80FB681B681A68AA
:1045CC00FB681B6842F480721A607B6A00933B6A3A
:1045DC0000224FF00111F86800F078F80346002B28
:1045EC000DD0FB681B681B6803F48073B3F5807FE8
:1045FC0003D1FB684FF400721A6403235FE07B89DC
:10460C00DBB21A46FB681B6802F0FE021A617B6A79
:10461C003A6A2D49F86800F0D3F80346002B01D014
:10462C0001234CE000237B61FB681B685B697B61A9
:10463C00FB681B689B697B617B697A6A396AF868DD
:10464C0000F05EF90346002B0DD0FB681B6C042BAD
:10465C0007D1FB681B681A68FB681B6842F4007280
:10466C001A6001232BE0FB88012B05D13B89DAB2C0
:10467C00FB681B681A6121E03B891B0A9BB2DAB20A
:10468C00FB681B681A617A6A396AF86800F038F9B5
:10469C000346002B0DD0FB681B6C042B07D1FB6869
:1046AC001B681A68FB681B6842F400721A600123CD
:1046BC0005E03B89DAB2FB681B681A6100231846D7
:1046CC001837BD4680BD00BF0200010080B584B024
:1046DC0000AFF860B9603B601346FB7148E03B6883
:1046EC00B3F1FF3F44D0FFF745F90246BB69D31A3B
:1046FC003A689A4202D33B68002B39D1BB681B0C39
:10470C00DBB2012B0DD1FB681B685B69DA43BB681C
:10471C0013409BB2002B0CBF01230023DBB21A46C3
:10472C000CE0FB681B689B69DA43BB6813409BB2C7
:10473C00002B0CBF01230023DBB21A46FB799A42F3
:10474C0016D1FB6800221A63FB68202283F83D20F7
:10475C00FB68002283F83E20FB681B6C43F02002B0
:10476C00FB681A64FB68002283F83C20012323E0D9
:10477C00BB681B0CDBB2012B0DD1FB681B685B69A2
:10478C00DA43BB6813409BB2002B0CBF0123002300
:10479C00DBB21A460CE0FB681B689B69DA43BB680A
:1047AC0013409BB2002B0CBF01230023DBB21A4633
:1047BC00FB799A4293D0002318461037BD4680BD32
:1047CC0080B584B000AFF860B9607A603B6071E08E
:1047DC00FB681B685B6903F48063B3F5806F23D1BE
:1047EC00FB681B681A68FB681B6842F400721A604D
:1047FC00FB681B686FF480625A61FB6800221A63C5
:10480C00FB68202283F83D20FB68002283F83E20C1
:10481C00FB681B6C43F00402FB681A64FB68002203
:10482C0083F83C20012367E07B68B3F1FF3F41D064
:10483C00FFF7A0F802463B68D31A7A689A4202D373
:10484C007B68002B36D1BB681B0CDBB2012B0CD167
:10485C00FB681B685B69DA43BB6813409BB2002B97
:10486C0014BF01230023DBB20BE0FB681B689B69C0
:10487C00DA43BB6813409BB2002B14BF0123002307
:10488C00DBB2002B16D0FB6800221A63FB682022D7
:10489C0083F83D20FB68002283F83E20FB681B6CEC
:1048AC0043F02002FB681A64FB68002283F83C206A
:1048BC00012321E0BB681B0CDBB2012B0CD1FB6884
:1048CC001B685B69DA43BB6813409BB2002B14BFB7
:1048DC0001230023DBB20BE0FB681B689B69DA4306
:1048EC00BB6813409BB2002B14BF01230023DBB227
:1048FC00002B7FF46DAF002318461037BD4680BDEA
:10490C0080B584B000AFF860B9607A6034E0F868C4
:10491C0000F086F80346002B01D0012334E0BB687D
:10492C00B3F1FF3F28D0FFF725F802467B68D31A76
:10493C00BA689A4202D3BB68002B1DD1FB681B6876
:10494C005B6903F08003802B16D0FB6800221A638E
:10495C00FB68202283F83D20FB68002283F83E2070
:10496C00FB681B6C43F02002FB681A64FB68002296
:10497C0083F83C20012307E0FB681B685B6903F0AC
:10498C008003802BC3D1002318461037BD4680BD51
:10499C0080B584B000AFF860B9607A6034E0F86834
:1049AC0000F03EF80346002B01D0012334E0BB6835
:1049BC00B3F1FF3F28D0FEF7DDFF02467B68D31A28
:1049CC00BA689A4202D3BB68002B1DD1FB681B68E6
:1049DC005B6903F00403042B16D0FB6800221A63F6
:1049EC00FB68202283F83D20FB68002283F83E20E0
:1049FC00FB681B6C43F02002FB681A64FB68002206
:104A0C0083F83C20012307E0FB681B685B6903F01B
:104A1C000403042BC3D1002318461037BD4680BDB8
:104A2C0080B483B000AF78607B681B685B6903F46B
:104A3C008063B3F5806F1BD17B681B686FF4806259
:104A4C005A617B6800221A637B68202283F83D2020
:104A5C007B68002283F83E207B681B6C43F00402C9
:104A6C007B681A647B68002283F83C20012300E0F9
:104A7C00002318460C37BD4680BC704780B586B005
:104A8C0000AF78607B68002B01D1012372E27B6858
:104A9C001B6803F00103002B00F08780924B5B68CE
:104AAC0003F00C03042B0CD08F4B5B6803F00C034E
:104ABC00082B12D18C4B5B6803F48033B3F5803F29
:104ACC000BD1894B1B6803F40033002B6CD07B6833
:104ADC005B68002B68D101234CE27B685B68B3F503
:104AEC00803F06D1804B1B687F4A43F480331360B0
:104AFC002EE07B685B68002B0CD17B4B1B687A4AE1
:104B0C0023F480331360784B1B68774A23F480239B
:104B1C0013601DE07B685B68B3F5A02F0CD1724B62
:104B2C001B68714A43F4802313606F4B1B686E4AF9
:104B3C0043F4803313600BE06B4B1B686A4A23F41D
:104B4C0080331360684B1B68674A23F4802313601F
:104B5C007B685B68002B13D0FEF70CFF386108E014
:104B6C00FEF708FF02463B69D31A642B01D90323D5
:104B7C0000E25D4B1B6803F40033002BF0D014E013
:104B8C00FEF7F8FE386108E0FEF7F4FE02463B69DA
:104B9C00D31A642B01D90323ECE1534B1B6803F4A8
:104BAC000033002BF0D100E000BF7B681B6803F0E2
:104BBC000203002B63D04C4B5B6803F00C03002BFF
:104BCC000BD0494B5B6803F00C03082B1CD1464BF4
:104BDC005B6803F48033002B16D1434B1B6803F046
:104BEC000203002B05D07B681B69012B01D001232C
:104BFC00C0E13D4B1B6823F0F8027B685B69DB006E
:104C0C00394913430B603AE07B681B69002B20D0B9
:104C1C00364B01221A60FEF7ADFE386108E0FEF754
:104C2C00A9FE02463B69D31A022B01D90323A1E149
:104C3C002D4B1B6803F00203002BF0D02A4B1B6892
:104C4C0023F0F8027B685B69DB00274913430B6098
:104C5C0015E0264B00221A60FEF78CFE386108E046
:104C6C00FEF788FE02463B69D31A022B01D90323B7
:104C7C0080E11D4B1B6803F00203002BF0D17B6815
:104C8C001B6803F00803002B3AD07B689B69002B50
:104C9C0019D0174B01221A60FEF76CFE386108E040
:104CAC00FEF768FE02463B69D31A022B01D9032397
:104CBC0060E10D4B5B6A03F00203002BF0D0012086
:104CCC0000F0CEFA1CE00A4B00221A60FEF752FEEE
:104CDC0038610FE0FEF74EFE02463B69D31A022BF9
:104CEC0008D9032346E100BF0010024000004242F5
:104CFC0080044242924B5B6A03F00203002BE9D121
:104D0C007B681B6803F00403002B00F0A6800023D3
:104D1C00FB758B4BDB6903F08053002B0DD1884B5B
:104D2C00DB69874A43F08053D361854BDB6903F021
:104D3C008053BB60BB680123FB75824B1B6803F47B
:104D4C008073002B18D17F4B1B687E4A43F4807311
:104D5C001360FEF70FFE386108E0FEF70BFE02460B
:104D6C003B69D31A642B01D9032303E1754B1B68F0
:104D7C0003F48073002BF0D07B68DB68012B06D129
:104D8C006F4B1B6A6E4A43F0010313622DE07B6884
:104D9C00DB68002B0CD16A4B1B6A694A23F00103B8
:104DAC001362674B1B6A664A23F0040313621CE010
:104DBC007B68DB68052B0CD1614B1B6A604A43F0A6
:104DCC00040313625E4B1B6A5D4A43F001031362DA
:104DDC000BE05B4B1B6A5A4A23F001031362584BDE
:104DEC001B6A574A23F0040313627B68DB68002BB1
:104DFC0015D0FEF7BFFD38610AE0FEF7BBFD024699
:104E0C003B69D31A41F28832934201D90323B1E0B2
:104E1C004B4B1B6A03F00203002BEED014E0FEF7A1
:104E2C00A9FD38610AE0FEF7A5FD02463B69D31ADD
:104E3C0041F28832934201D903239BE0404B1B6A19
:104E4C0003F00203002BEED1FB7D012B05D13C4B73
:104E5C00DB693B4A23F08053D3617B68DB69002B11
:104E6C0000F08780364B5B6803F00C03082B61D095
:104E7C007B68DB69022B46D1334B00221A60FEF7AC
:104E8C0079FD386108E0FEF775FD02463B69D31ADF
:104E9C00022B01D903236DE0294B1B6803F000732F
:104EAC00002BF0D17B681B6AB3F5803F08D1244BF3
:104EBC005B6823F400327B689B68214913434B6089
:104ECC001F4B5B6823F474127B68196A7B685B6AFE
:104EDC000B431B4913434B601B4B01221A60FEF71B
:104EEC0049FD386108E0FEF745FD02463B69D31ADF
:104EFC00022B01D903233DE0114B1B6803F0007317
:104F0C00002BF0D035E0104B00221A60FEF732FD7A
:104F1C00386108E0FEF72EFD02463B69D31A022BDE
:104F2C0001D9032326E0064B1B6803F00073002B0A
:104F3C00F0D11EE07B68DB69012B07D1012319E05E
:104F4C000010024000700040600042420B4B5B6856
:104F5C00FB60FB6803F480327B681B6A9A4206D1C3
:104F6C00FB6803F470127B685B6A9A4201D00123E0
:104F7C0000E0002318461837BD4680BD00100240E3
:104F8C0080B584B000AF786039607B68002B01D1AC
:104F9C000123D0E06A4B1B6803F007033A689A427E
:104FAC0010D9674B1B6823F0070265493B68134314
:104FBC000B60634B1B6803F007033A689A4201D0FD
:104FCC000123B8E07B681B6803F00203002B20D0A0
:104FDC007B681B6803F00403002B05D0594B5B68FE
:104FEC00584A43F4E06353607B681B6803F0080382
:104FFC00002B05D0534B5B68524A43F4605353600B
:10500C00504B5B6823F0F0027B689B684D4913435F
:10501C004B607B681B6803F00103002B40D07B685E
:10502C005B68012B07D1474B1B6803F40033002B43
:10503C0015D101237FE07B685B68022B07D1414BC4
:10504C001B6803F00073002B09D1012373E03D4B67
:10505C001B6803F00203002B01D101236BE0394BD9
:10506C005B6823F003027B685B68364913434B6033
:10507C00FEF780FCF8600AE0FEF77CFC0246FB6859
:10508C00D31A41F28832934201D9032353E02D4BBA
:10509C005B6803F00C027B685B689B009A42EBD167
:1050AC00274B1B6803F007033A689A4210D2244B33
:1050BC001B6823F0070222493B6813430B60204B0B
:1050CC001B6803F007033A689A4201D0012332E0CF
:1050DC007B681B6803F00403002B08D0194B5B683A
:1050EC0023F4E0627B68DB68164913434B607B68F2
:1050FC001B6803F00803002B09D0124B5B6823F4E8
:10510C0060527B681B69DB000E4913434B6000F057
:10511C0021F802460B4B5B681B0903F00F030A498D
:10512C00CB5C22FA03F3094A1360094B1B6818463F
:10513C00FEF7DEFB002318461037BD4680BD00BFCE
:10514C0000200240001002401C840008480000208F
:10515C005400002080B487B000AF0023FB60002314
:10516C00BB6000237B6100237B6000233B611E4BF3
:10517C005B68FB60FB6803F00C03042B02D0082B6C
:10518C0003D027E0194B3B6127E0FB689B0C03F035
:10519C000F03174AD35C7B60FB6803F48033002B4E
:1051AC0010D0114B5B685B0C03F00103114AD35C0C
:1051BC00BB607B680D4A03FB02F2BB68B2FBF3F3E6
:1051CC007B6104E07B680C4A02FB03F37B617B6927
:1051DC003B6102E0054B3B6100BF3B6918461C3745
:1051EC00BD4680BC704700BF0010024000127A0020
:1051FC00348400084484000800093D0080B400AFEA
:10520C00024B1B681846BD4680BC70474800002006
:10521C0080B500AFFFF7F2FF0246054B5B681B0A37
:10522C0003F007030349CB5C22FA03F3184680BD55
:10523C00001002402C84000880B500AFFFF7DEFFA1
:10524C000246054B5B68DB0A03F007030349CB5CA2
:10525C0022FA03F3184680BD001002402C8400088B
:10526C0080B485B000AF78600A4B1B680A4AA2FB79
:10527C0003235B0A7A6802FB03F3FB6000BFFB6845
:10528C005A1EFA60002BF9D100BF00BF1437BD467F
:10529C0080BC704748000020D34D621080B485B0AC
:1052AC0000AF78607B6893F83D30DBB2012B01D006
:1052BC0001233AE07B68022283F83D207B681B685F
:1052CC00DA687B681B6842F00102DA607B681B6855
:1052DC00184A93420ED07B681B68B3F1804F09D0FB
:1052EC007B681B68144A934204D07B681B68134A82
:1052FC00934211D17B681B689B6803F00703FB602A
:10530C00FB68062B10D07B681B681A687B681B68CF
:10531C0042F001021A6007E07B681B681A687B6820
:10532C001B6842F001021A60002318461437BD4670
:10533C0080BC7047002C0140000400400008004075
:10534C0080B483B000AF78607B681B68DA687B68D8
:10535C001B6822F00102DA607B681B681A6A41F252
:10536C0011131340002B0FD17B681B681A6A40F293
:10537C0044431340002B07D17B681B681A687B6879
:10538C001B6822F001021A607B68012283F83D2021
:10539C00002318460C37BD4680BC704780B582B0E0
:1053AC0000AF786039607B68002B01D1012341E0AC
:1053BC007B6893F83D30DBB2002B06D17B68002272
:1053CC0083F83C207868FDF745F87B68022283F867
:1053DC003D207B681A687B6804331946104600F040
:1053EC0071FA7B681B681A687B681B6822F00802DC
:1053FC001A607B681B6819687B681B683A680A43EB
:10540C001A607B68012283F846207B68012283F8AE
:10541C003E207B68012283F83F207B68012283F8C1
:10542C0042207B68012283F843207B68012283F8A9
:10543C003D20002318460837BD4680BD80B586B098
:10544C0000AF786039607B68002B01D1012393E0B9
:10545C007B6893F83D30DBB2002B06D17B680022D1
:10546C0083F83C207868FCF78DFF7B68022283F878
:10547C003D207B681B689B687A68126823F4804324
:10548C0023F0070393607B681A687B680433194622
:10549C00104600F017FA7B681B689B687B617B6881
:1054AC001B689B693B617B681B681B6AFB603B68E4
:1054BC001B687A6913437B613B6923F4407323F0C7
:1054CC0003033B613B689A683B689B691B0213436F
:1054DC003A6913433B613B6923F4406323F00C03AB
:1054EC003B613B6923F4704323F0F0033B613B6861
:1054FC00DA683B68DB691B0213433A6913433B616F
:10550C003B681B691A013B681B6A1B0313433A690E
:10551C0013433B61FB6823F02203FB603B685A6832
:10552C003B685B691B011343FA681343FB607B68A0
:10553C001B687A699A607B681B683A699A617B6818
:10554C001B68FA681A627B68012283F846207B6824
:10555C00012283F83E207B68012283F83F207B6880
:10556C00012283F842207B68012283F843207B6868
:10557C00012283F83D20002318461837BD4680BD14
:10558C0080B584B000AF786039607B6893F83E30AA
:10559C00FB737B6893F83F30BB737B6893F84230A6
:1055AC007B737B6893F843303B733B68002B10D1C3
:1055BC00FB7B012B02D17B7B012B01D0012369E00A
:1055CC007B68022283F83E207B68022283F842200B
:1055DC0031E03B68042B10D1BB7B012B02D13B7B10
:1055EC00012B01D0012355E07B68022283F83F2078
:1055FC007B68022283F843201DE0FB7B012B08D142
:10560C00BB7B012B05D17B7B012B02D13B7B012B7F
:10561C0001D001233EE07B68022283F83E207B68A8
:10562C00022283F83F207B68022283F842207B68A9
:10563C00022283F843203B68002B03D03B68042BE9
:10564C0008D00FE07B681B6801220021184600F08F
:10565C00A7F916E07B681B6801220421184600F0AC
:10566C009FF90EE07B681B6801220021184600F0B0
:10567C0097F97B681B6801220421184600F090F909
:10568C0000BF7B681B681A687B681B6842F00102CC
:10569C001A60002318461037BD4680BD80B584B013
:1056AC0000AF78607B681B68DB68FB607B681B68FD
:1056BC001B69BB60BB6803F00203002B20D0FB68A6
:1056CC0003F00203002B1BD07B681B686FF00202F7
:1056DC001A617B6801221A777B681B689B6903F04F
:1056EC000303002B03D0786800F0D1F805E078684C
:1056FC0000F0C4F8786800F0D3F87B6800221A77C1
:10570C00BB6803F00403002B20D0FB6803F00403F8
:10571C00002B1BD07B681B686FF004021A617B683E
:10572C0002221A777B681B689B6903F44073002B79
:10573C0003D0786800F0ABF805E0786800F09EF8CC
:10574C00786800F0ADF87B6800221A77BB6803F02C
:10575C000803002B20D0FB6803F00803002B1BD0A0
:10576C007B681B686FF008021A617B6804221A7749
:10577C007B681B68DB6903F00303002B03D078689C
:10578C0000F085F805E0786800F078F8786800F0AB
:10579C0087F87B6800221A77BB6803F01003002B94
:1057AC0020D0FB6803F01003002B1BD07B681B6818
:1057BC006FF010021A617B6808221A777B681B68ED
:1057CC00DB6903F44073002B03D0786800F05FF8BA
:1057DC0005E0786800F052F8786800F061F87B68B2
:1057EC0000221A77BB6803F00103002B0CD0FB6876
:1057FC0003F00103002B07D07B681B686FF00102DC
:10580C001A617868FBF7DCFFBB6803F08003002BA0
:10581C000CD0FB6803F08003002B07D07B681B685F
:10582C006FF080021A61786800F045F9BB6803F0EC
:10583C004003002B0CD0FB6803F04003002B07D077
:10584C007B681B686FF040021A61786800F031F8D1
:10585C00BB6803F02003002B0CD0FB6803F0200383
:10586C00002B07D07B681B686FF020021A617868E8
:10587C0000F018F900BF1037BD4680BD80B483B06E
:10588C0000AF786000BF0C37BD4680BC704780B459
:10589C0083B000AF786000BF0C37BD4680BC70474A
:1058AC0080B483B000AF786000BF0C37BD4680BCBD
:1058BC00704780B483B000AF786000BF0C37BD4632
:1058CC0080BC704780B485B000AF786039607B686D
:1058DC001B68FB607B682F4A93420BD07B68B3F14B
:1058EC00804F07D07B682C4A934203D07B682B4AAD
:1058FC00934208D1FB6823F07003FB603B685B6844
:10590C00FA681343FB607B68224A93420BD07B6896
:10591C00B3F1804F07D07B681F4A934203D07B685A
:10592C001E4A934208D1FB6823F44073FB603B682A
:10593C00DB68FA681343FB60FB6823F080023B686A
:10594C005B691343FB607B68FA681A603B689A6872
:10595C007B68DA623B681A687B689A627B680D4ADE
:10596C00934203D13B681A697B681A637B680122F6
:10597C005A617B681B6903F00103002B05D07B681F
:10598C001B6923F001027B681A6100BF1437BD4606
:10599C0080BC7047002C014000040040000800400F
:1059AC0080B487B000AFF860B9607A60BB6803F070
:1059BC001F03012202FA03F37B61FB681A6A7B69FD
:1059CC00DB431A40FB681A62FB681A6ABB6803F077
:1059DC001F03796801FA03F31A43FB681A6200BFCC
:1059EC001C37BD4680BC704780B485B000AF786072
:1059FC0039607B6893F83C30012B01D1022346E0DF
:105A0C007B68012283F83C207B68022283F83D20CE
:105A1C007B681B685B68FB607B681B689B68BB6072
:105A2C00FB6823F07003FB603B681B68FA68134348
:105A3C00FB607B681B68FA685A607B681B68164AB7
:105A4C0093420ED07B681B68B3F1804F09D07B6802
:105A5C001B68124A934204D07B681B68104A93421D
:105A6C000CD1BB6823F08003BB603B685B68BA68F1
:105A7C001343BB607B681B68BA689A607B68012221
:105A8C0083F83D207B68002283F83C2000231846D5
:105A9C001437BD4680BC7047002C01400004004008
:105AAC000008004080B483B000AF786000BF0C37B2
:105ABC00BD4680BC704780B483B000AF786000BF37
:105ACC000C37BD4680BC704780B582B000AF7860A3
