:020000040800F2
:10000000005000200D3B00087126000879260008EA
:1000100081260008892600089126000800000000BB
:100020000000000000000000000000009926000809
:10003000A526000800000000B1260008BD26000823
:10004000553B0008553B0008553B0008553B000850
:10005000553B0008553B0008553B0008553B000840
:10006000553B0008553B0008CD260008553B0008CD
:10007000553B0008553B0008553B0008553B000820
:10008000553B0008553B0008553B0008553B000810
:10009000553B0008553B0008553B0008DB2600088F
:1000A000553B0008553B0008553B0008553B0008F0
:1000B000553B0008553B0008E9260008553B000861
:1000C000553B0008553B0008553B0008553B0008D0
:1000D000553B0008FD260008553B0008553B00082D
:1000E000553B0008553B0008553B00080000000048
:1000F0000000000000000000000000000000000000
:0C01000000000000000000005FF808F1A3
:10010C0010B5054C237833B9044B13B10448AFF345
:10011C0000800123237010BDB800002000000000F7
:10012C00787D000808B5034B1BB103490348AFF3B6
:10013C00008008BD00000000BC000020787D000895
:10014C00034613F8012B002AFBD1181A013870470B
:10015C0080F0004002E000BF81F0004142001FBF70
:10016C005FEA410392EA030F7FEA226C7FEA236C79
:10017C006AD04FEA1262D2EB1363C1BFD21841406E
:10018C0048404140B8BF5B42192B88BF704710F004
:10019C00004F40F4000020F07F4018BF404211F0A7
:1001AC00004F41F4000121F07F4118BF494292EA0F
:1001BC00030F3FD0A2F1010241FA03FC10EB0C003B
:1001CC00C3F1200301FA03F100F0004302D54942C8
:1001DC0060EB4000B0F5000F13D3B0F1807F06D375
:1001EC0040084FEA310102F10102FE2A51D2B1F16D
:1001FC00004F40EBC25008BF20F0010040EA030062
:10020C007047490040EB0000013A28BFB0F5000FE1
:10021C00EDD2B0FA80FCACF1080CB2EB0C0200FA97
:10022C000CF0AABF00EBC25052421843BCBFD040E6
:10023C001843704792F0000F81F4000106BF80F460
:10024C0000000132013BB5E74FEA41037FEA226C23
:10025C0018BF7FEA236C21D092EA030F04D092F0EE
:10026C00000F08BF0846704790EA010F1CBF002022
:10027C00704712F07F4F04D1400028BF40F000407F
:10028C00704712F100723CBF00F50000704700F09F
:10029C00004343F0FE4040F4000070477FEA2262C6
:1002AC0016BF08467FEA23630146420206BF5FEA97
:1002BC00412390EA010F40F4800070474FF0000397
:1002CC0004E000BF10F0004348BF40425FEA000C5E
:1002DC0008BF704743F0964301464FF000001CE006
:1002EC0050EA010208BF70474FF000030AE000BF5C
:1002FC0050EA010208BF704711F0004302D540429A
:10030C0061EB41015FEA010C02BF8446014600200B
:10031C0043F0B64308BFA3F18053A3F50003BCFA26
:10032C008CF2083AA3EBC25310DB01FA02FC6344D3
:10033C0000FA02FCC2F12002BCF1004F20FA02F2DA
:10034C0043EB020008BF20F00100704702F12002CD
:10035C0001FA02FCC2F1200250EA4C0021FA02F22E
:10036C0043EB020008BF20EADC7070474FF0FF0C33
:10037C001CEAD0521EBF1CEAD15392EA0C0F93EA2E
:10038C000C0F6FD01A4480EA010C400218BF5FEAD0
:10039C0041211ED04FF0006343EA501043EA511143
:1003AC00A0FB01310CF00040B1F5000F3EBF49003D
:1003BC0041EAD3715B0040EA010062F17F02FD2A41
:1003CC001DD8B3F1004F40EBC25008BF20F0010024
:1003DC00704790F0000F0CF0004C08BF49024CEA3B
:1003EC00502040EA51207F3AC2BFD2F1FF0340EACD
:1003FC00C250704740F400004FF00003013A5DDC3E
:10040C0012F1190FDCBF00F000407047C2F100027E
:10041C00410021FA02F1C2F1200200FA02FC5FEA6B
:10042C00310040F1000053EA4C0308BF20EADC70B5
:10043C00704792F0000F00F0004C02BF400010F427
:10044C00000F013AF9D040EA0C0093F0000F01F0D4
:10045C00004C02BF490011F4000F013BF9D041EAF6
:10046C000C018FE70CEAD15392EA0C0F18BF93EAF8
:10047C000C0F0AD030F0004C18BF31F0004CD8D122
:10048C0080EA010000F00040704790F0000F17BFA9
:10049C0090F0004F084691F0000F91F0004F14D0EF
:1004AC0092EA0C0F01D142020FD193EA0C0F03D147
:1004BC004B0218BF084608D180EA010000F000404A
:1004CC0040F0FE4040F40000704740F0FE4040F425
:1004DC00400070474FF0FF0C1CEAD0521EBF1CEAC4
:1004EC00D15392EA0C0F93EA0C0F69D0A2EB0302E2
:1004FC0080EA010C49024FEA402037D04FF080537C
:10050C0043EA111143EA10130CF000408B4238BF40
:10051C005B0042F17D024FF4000C8B4224BF5B1A4E
:10052C0040EA0C00B3EB510F24BFA3EB510340EA9C
:10053C005C00B3EB910F24BFA3EB910340EA9C004A
:10054C00B3EBD10F24BFA3EBD10340EADC001B01BA
:10055C0018BF5FEA1C1CE0D1FD2A3FF650AF8B425E
:10056C0040EBC25008BF20F0010070470CF0004C6B
:10057C004CEA50207F32C2BFD2F1FF0340EAC25096
:10058C00704740F400004FF00003013A37E792F057
:10059C00000F00F0004C02BF400010F4000F013AB5
:1005AC00F9D040EA0C0093F0000F01F0004C02BFB0
:1005BC00490011F4000F013BF9D041EA0C0195E719
:1005CC000CEAD15392EA0C0F08D142027FF47DAFB2
:1005DC0093EA0C0F7FF470AF084676E793EA0C0FA2
:1005EC0004D14B023FF44CAF08466EE730F0004CA0
:1005FC0018BF31F0004CCAD130F000427FF45CAF30
:10060C0031F000437FF43CAF5FE700BF4FF0FF3C9D
:10061C0006E000BF4FF0010C02E000BF4FF0010CF0
:10062C004DF804CD4FEA40024FEA41037FEA226CB9
:10063C0018BF7FEA236C11D001B052EA530C18BFDB
:10064C0090EA010F58BFB2EB030088BFC81738BF40
:10065C006FEAE17018BF40F0010070477FEA226C2E
:10066C0002D15FEA402C05D17FEA236CE4D15FEA2A
:10067C00412CE1D05DF8040B704700BF844608465E
:10068C006146FFE70FB5FFF7C9FF002848BF10F11F
:10069C00000F0FBD4DF808EDFFF7F4FF0CBF012064
:1006AC0000205DF808FB00BF4DF808EDFFF7EAFFEE
:1006BC0034BF012000205DF808FB00BF4DF808EDA9
:1006CC00FFF7E0FF94BF012000205DF808FB00BF9E
:1006DC004DF808EDFFF7D2FF94BF012000205DF824
:1006EC0008FB00BF4DF808EDFFF7C8FF34BF012031
:1006FC0000205DF808FB00BF42000ED2B2F1FE4FA5
:10070C000BD34FF09E03B3EB126209D44FEA0023D4
:10071C0043F0004323FA02F070474FF0000070479B
:10072C0012F1610F01D1420202D14FF0FF3070473C
:10073C004FF00000704700BF80B483B000AF034699
:10074C00FB71044AFB79137000BF0C37BD4680BCAB
:10075C00704700BFD400002080B400AF024B1B7860
:10076C001846BD4680BC7047D400002080B584B0CC
:10077C0000AF03460A46FB711346BB7103F03EFA09
:10078C00F860FA793B4913469B0013449B000B44D9
:10079C000C331B68FA68D31A132B67D9FA793549CD
:1007AC0013469B0013449B000B440C33FA681A60ED
:1007BC00FA79304913469B0013449B000B441B7879
:1007CC00DBB2002B0DD0BB79002B0AD0FA7929496A
:1007DC0013469B0013449B000B440433FA681A60C5
:1007EC0045E0FA79234913469B0013449B000B44C4
:1007FC001B78DBB283F00103DBB2002B16D0BB7984
:10080C00002B13D0FA791B4913469B0013449B0011
:10081C000B4401221A70FA79164913469B001344B3
:10082C009B000B440433FA681A6020E0FA791149F2
:10083C0013469B0013449B000B441B78DBB2002B2C
:10084C0015D0FA790B4913469B0013449B000B44BB
:10085C00013301221A70FA79064913469B0013449E
:10086C009B000B440833FA681A6000E000BF103795
:10087C00BD4680BDD800002080B588B002AF0023F3
:10088C007B61C3E00023FB740023FB600023BB608F
:10089C0072B600BF62497A6913469B0013449B00F1
:1008AC000B4401331B78DBB2002B28D00123FB74E3
:1008BC005B497A6913469B0013449B000B4401333C
:1008CC0000221A7056497A6913469B0013449B0008
:1008DC000B4400221A7052497A6913469B00134448
:1008EC009B000B4404331B68FB604D497A6913462B
:1008FC009B0013449B000B4408331B68BB6062B61F
:10090C0000BFFB7C002B7ED0BA68FB68D31A7B60DF
:10091C007B68B3F5FA7F3CD341497A6913469B0057
:10092C0013449B000B44103302221A707A687969C5
:10093C003C4806F039F97B69002B03D07B69012B0D
:10094C0006D060E0384806F097F902F0B5FF5AE09F
:10095C000020FFF7F1FE00F08FF901230093012333
:10096C0000220121314800F0DBF901F09BF902F083
:10097C0045F803467B802E4B1B6800225A622D4B98
:10098C001B6800225A627B8819462B4806F00CF92A
:10099C0039E023497A6913469B0013449B000B44AE
:1009AC00103301221A707A687969244806F0FCF831
:1009BC007B69002B03D07B69012B16D023E02048E8
:1009CC0004F002FE1E4B1B6800225A621D4B0022D3
:1009DC001A700020FFF7B0FE1B4806F04DF90020FE
:1009EC0000F082F902F048FE0DE0184806F044F9D8
:1009FC00104B1B6800225A6200F044FB0346184659
:100A0C0000F0AEFA00BF7B6901337B617B69012B7F
:100A1C007FF738AF00BF00BF1837BD4680BD00BFA1
:100A2C00D8000020907D0008B47D0008D47D00081B
:100A3C00E40100202C020020E47D0008307E000838
:100A4C0074020020B0130020547E0008707E000851
:100A5C0080B485B000AF0346FB71FA790C4913469C
:100A6C009B0013449B000B4410331B78FB73FA79E7
:100A7C00074913469B0013449B000B441033002280
:100A8C001A70FB7B18461437BD4680BC704700BFFC
:100A9C00D800002080B500AF01F06CF90D4B5B78ED
:100AAC000133DAB20C4B1A700A4B1B781A468023AE
:100ABC0093FBF2F3DAB2094B1A70064B5B781A46C9
:100ACC00402393FBF2F3DBB2013BDAB2044B1A7016
:100ADC0000BF80BD988600088101002082010020A3
:100AEC008301002080B582B002AF012300930E2356
:100AFC0080220021002001F075FB002300930B23C2
:100B0C007D220321022001F06DFB0421042001F061
:100B1C00E5FA464B012200920ECB454801F0B8FA9B
:100B2C00424B5B785B00DAB2424B1A701421032003
:100B3C0001F0D4FA3D4B012200920ECB3E4801F05D
:100B4C00A7FA3A4B5B781A46384B1B783B493C4822
:100B5C0006F0D0F8354B5B781A4652001344DBB2E2
:100B6C000133DAB2334B1A701D21032001F0B6FAAF
:100B7C002E4B012200920ECB314801F089FA314BF9
:100B8C001B781A4630492E4806F0B4F8274B5B7890
:100B9C009B00DBB20233DAB2264B1A7026210320FB
:100BAC0001F09CFA214B012200920ECB244801F05B
:100BBC006FFA264B1B781A462549214806F09AF8FD
:100BCC001A4B5B781A4692001344DBB20333DAB249
:100BDC00184B1A702F21032001F080FA134B0122BD
:100BEC0000920ECB164801F053FA4FF42F721949AC
:100BFC00134806F07FF80D4B5B781A4652001344ED
:100C0C005B00DBB20433DAB20A4B1A7038210320D2
:100C1C0001F064FA054B012200920ECB084801F05A
:100C2C0037FA01F029F900BFBD4680BD988600084F
:100C3C000000002080010020907E0008A47E0008A7
:100C4C000001002082010020B87E000883010020F2
:100C5C00D07E0008E87E000880B582B000AF034665
:100C6C00FB71FB79184601F0EFF801F005F900BFB4
:100C7C000837BD4680BD000080B582B002AF0020B1
:100C8C00FFF7EAFF012300220021002000F0ACF85E
:100C9C00134B1B781A46D200D31A5B00D8B2104BF8
:100CAC001B781A46D200D31A5B00DAB20C4B5B7875
:100CBC00023BDBB201210091002101F027FA00F088
:100CCC00D7F90346184600F04BF901230093012392
:100CDC0000220121034800F023F800BFBD4680BD6F
:100CEC0098860008FC7E000880B483B000AF0346F1
:100CFC00FB71054AFB791370034B1B7818460C37B4
:100D0C00BD4680BC704700BF8401002080B400AF9A
:100D1C00024B1B781846BD4680BC704784010020EE
:100D2C0080B586B002AF7860084611461A46034675
:100D3C00FB700B46BB7013467B70274B1B78BA7845
:100D4C0002FB03F3BB737868FFF7FAF90346DAB2D8
:100D5C00BB781344FB737B68002B04D01F4B1B78B0
:100D6C00FA7B9A4202D94FF0FF3331E01C4B1B78CF
:100D7C00FA789A4203D31A4B1B78013BFB70194B40
:100D8C001B78FA7802FB03F3DAB2BB7B11461846E8
:100D9C0001F0A4F9104B7A7800920ECB786801F030
:100DAC0077F93B7E002B10D006E00B4B7A78009243
:100DBC000ECB202001F0DAF8FB7B5A1CFA731A4692
:100DCC00064B1B78013B9A42EFDB01F055F80023F0
:100DDC0018461037BD4680BD988600088201002059
:100DEC00830100208101002080B586B002AF3960FC
:100DFC0011461A460346FB710B46BB801346BB716A
:100E0C003B683D4A934201D93B4B3B60FB79002B3D
:100E1C001FD13A6839493A4805F06CFF002300931A
:100E2C000123002200213648FFF77AFF3448FFF7F0
:100E3C0087F90346FB7306E0324B012200920ECB7E
:100E4C00202001F093F8FB7B5A1CFA730C2BF3D97E
:100E5C004BE0FB79012B1FD13A682B49284805F050
:100E6C0049FF002300930123002200212448FFF7AF
:100E7C0057FF2348FFF764F90346BB7306E0214B89
:100E8C00012200920ECB202001F070F8BB7B5A1C83
:100E9C00BA730C2BF3D928E0FB79022B25D102F085
:100EAC00B5FC0346184600F085F8BA883B6817492C
:100EBC00134805F01FFF002300930123012200219A
:100ECC000F48FFF72DFF0E48FFF73AF903467B73E7
:100EDC0006E00C4B012200920ECB202001F046F8CC
:100EEC007B7B5A1C7A730C2BF3D900F0C5FF0023C3
:100EFC0018461037BD4680BDFFE0F5050C7F000895
:100F0C000001002098860008187F0008247F000844
:100F1C0080B586B002AF78600B46FB70FA78002380
:100F2C000093012300217868FFF7FAFE7868FFF739
:100F3C0007F90346FB7306E0084B012200920ECB27
:100F4C00202001F013F8FB7B5A1CFA730C2BF3D9FD
:100F5C00002318461037BD4680BD00BF9886000898
:100F6C0080B584B002AF0346FB71FB79184600F0E4
:100F7C00B5F80123009301230F220021FFF7D0FEC7
:100F8C00FB791BB218460837BD4680BD80B584B0CE
:100F9C0002AF0346FB71064B1978002300934023E4
:100FAC007C22002001F01EF900BF0837BD4680BD31
:100FBC008101002080B584B002AF0346FB71002193
:100FCC00002001F08BF81B4B012200920ECB7C20F1
:100FDC0000F0CCFFFB79002B14D101220221002060
:100FEC0000F072FF01220121012000F06DFF0122AF
:100FFC000121032000F068FF01220221042000F0EF
:10100C0063FF13E001220421002000F05DFF0122A8
:10101C000521012000F058FF01220521032000F0DA
:10102C0053FF01220421042000F04EFF00BF0837BB
:10103C00BD4680BD9886000880B483B000AF0346DF
:10104C00FB71FA79084BA3FB021319090B461B0120
:10105C000B44D31ADAB2054B1A70044B1B781846A2
:10106C000C37BD4680BC7047F1F0F0F085010020D4
:10107C0080B400AF024B1B781846BD4680BC70474D
:10108C008501002080B400AF044B00221A70034B82
:10109C001B781846BD4680BC704700BF85010020F8
:1010AC0080B584B000AF0346FB80FB889B089AB2E6
:1010BC00094BA3FB021319090B461B010B44D31A52
:1010CC009BB2FB73FB7B1846FFF7B6FFFB7B184606
:1010DC001037BD4680BD00BFF1F0F0F080B582B096
:1010EC0000AF0346FB71FB79002B01D1064B06E0E8
:1010FC00FB79064A0821064805F0C6FD044B184644
:10110C000837BD4680BD00BF2C7F0008347F000827
:10111C008801002080B582B000AF02F017FD00F00E
:10112C00AFF800F057FA00F0F1F800F0FFF900F01A
:10113C001BF900F025FA00F06BF900F0BDF9FFF790
:10114C00A9FCFFF7CFFC41F2883002F061FDFFF7FC
:10115C0093FD3C213A4804F057FB3C21394804F0FC
:10116C0053FB394B1B686FF001021A6100F002FD52
:10117C0001F02CFC354805F07FFD01F03FFC0346E7
:10118C001946334805F010FD324B5B781A46402364
:10119C0093FBF2F3013B19462F4805F005FD0122A4
:1011AC002E492F4804F0AFFE2E4805F065FD244B68
:1011BC001B685B6A9AB22C4B1A802C4B1B889AB218
:1011CC002B4B1B889BB29A4224D0284B1B889BB27A
:1011DC00284ADB0013445B687B60244B1B889BB262
:1011EC005A1C91B2214A11801A46224B13F8323004
:1011FC00FB701E4B1B889BB2B3F5007F02D31B4BBD
:10120C0000221A80FB787968184600F017FB034619
:10121C00194A136000F0A2FC0346002B04D0164BB5
:10122C001B68184601F046FC144B1B78DBB2002BF4
:10123C00C3D001F063FE114B00221A70BDE700BF52
:10124C00E40100202C020020740200203C7F0008E6
:10125C00647F000898860008947F000854030020DF
:10126C00BC020020B87F0008A8130020A6030020B1
:10127C00A4030020A8030020AC130020B01300200E
:10128C0080B590B000AF07F1180328220021184652
:10129C0005F02AFE3B1D00221A605A609A60DA6043
:1012AC001A610123BB614FF48033FB6100233B6265
:1012BC000123BB6202237B634FF48033BB634FF487
:1012CC00E013FB6307F11803184603F01BFD0346FC
:1012DC00002B01D000F0ACFA0F237B600223BB6023
:1012EC000023FB604FF480633B6100237B613B1D5B
:1012FC000221184603F088FF0346002B01D000F0B2
:10130C0097FA00BF4037BD4680BD000080B500AFE6
:10131C00124B134A1A60114B124A5A600F4B00229F
:10132C009A600E4B0022DA600C4B4FF480421A612B
:10133C000A4B00225A61094B00229A61074B00228A
:10134C00DA61064B00221A62044803F02FF80346B8
:10135C00002B01D000F06CFA00BF80BD9001002082
:10136C0000540040A086010080B58CB000AF07F19E
:10137C000C0324220021184605F0B6FD3B1D00226B
:10138C001A605A60214B4FF080421A601F4B0022AA
:10139C005A601E4B00229A601C4B4FF6FF72DA60AB
:1013AC001A4B00221A61194B00229A610323FB602D
:1013BC0002233B6101237B610023BB610423FB619E
:1013CC0002233B6201237B620023BB620423FB628A
:1013DC0007F10C0319460D4804F074F90346002B71
:1013EC0001D000F025FA00237B600023BB603B1D7D
:1013FC001946064804F03CFC0346002B01D000F0D3
:10140C0017FA00BF3037BD4680BD00BFE401002095
:10141C0080B58CB000AF07F10C03242200211846D4
:10142C0005F062FD3B1D00221A605A60204B214AD8
:10143C001A601F4B00225A601D4B00229A601C4BF5
:10144C004122DA601A4B00221A61194B00229A6170
:10145C000323FB6002233B6101237B610023BB61FF
:10146C000423FB6102233B6201237B620023BB62EA
:10147C000423FB6207F10C0319460D4804F022F912
:10148C000346002B01D000F0D3F900237B6000232E
:10149C00BB603B1D1946064804F0EAFB0346002BD3
:1014AC0001D000F0C5F900BF3037BD4680BD00BF8C
:1014BC002C0200200004004080B582B000AF3B46F7
:1014CC0000221A605A60174B174A1A60154B4FF6D8
:1014DC001F525A60134B00229A60124B40F2F312C7
:1014EC00DA60104B00221A610E4B00229A6108211F
:1014FC000C4804F097F80346002B01D000F098F943
:10150C0000233B6000237B603B461946054804F0F2
:10151C00AFFB0346002B01D000F08AF900BF08375F
:10152C00BD4680BD740200200008004080B500AFAD
:10153C00114B124A1A60104B47F612225A600E4B8E
:10154C0000229A600C4B0022DA600B4B00221A61CD
:10155C00094B0C225A61084B00229A61064B00225F
:10156C00DA61054804F0F4FB0346002B01D000F0CF
:10157C005FF900BF80BD00BFBC02002000380140F5
:10158C0080B500AF114B124A1A60104B4FF4E13288
:10159C005A600E4B00229A600C4B0022DA600B4B07
:1015AC0000221A61094B0C225A61084B00229A61E5
:1015BC00064B0022DA61054804F0CAFB0346002BF7
:1015CC0001D000F035F900BF80BD00BF040300203E
:1015DC000044004080B588B000AF07F11003002232
:1015EC001A605A609A60DA60324B9B69314A43F058
:1015FC00100393612F4B9B6903F01003FB60FB6896
:10160C002C4B9B692B4A43F020039361294B9B691C
:10161C0003F02003BB60BB68264B9B69254A43F053
:10162C0004039361234B9B6903F004037B607B6889
:10163C00204B9B691F4A43F0080393611D4B9B6928
:10164C0003F008033B603B6801224FF400511A4839
:10165C0002F063FE4FF400533B6101237B610023D6
:10166C00BB610223FB6107F110031946124802F01B
:10167C00B9FC30233B61114B7B610123BB6107F14A
:10168C00100319460E4802F0ADFC002201210A207D
:10169C0002F0B9FB0A2002F0D2FB00220121172034
:1016AC0002F0B1FB172002F0CAFB00BF2037BD4689
:1016BC0080BD00BF0010024000100140000031103E
:1016CC000008014080B500AF044B1B680133034A8E
:1016DC00136000F08FFA00BF80BD00BF4C030020E8
:1016EC0080B582B000AF7860391D4FF0FF33012216
:1016FC00034804F07DFB7B6818460837BD4680BD67
:10170C000403002090B583B000AF78607B681B6841
:10171C00344A934261D1344B1B889BB21C4602F075
:10172C006DFA02463149E3000B445A602E4B1B887C
:10173C009BB25A1C91B22C4A11801A462C4B197828
:10174C002A4B03F83210284B1B889BB2B3F5007F51
:10175C0002D3254B00221A80234B1B889AB2254BAF
:10176C001B889BB29A4217D31F4B1B889BB21A46FD
:10177C00204B1B889BB2D31A1F4A128892B29342F9
:10178C0026DD194B1B889AB21A4B1B889BB2D31AB5
:10179C009AB2194B1A801BE0134B1B889BB21A464A
:1017AC00144B1B889BB2D31A03F50073124A128890
:1017BC0092B293420CD90C4B1B889AB20D4B1B88DE
:1017CC009BB2D31A9BB203F500739AB20A4B1A80E0
:1017DC0001220749094804F096FB00BF0C37BD46AF
:1017EC0090BD00BF00380140A4030020A8030020D6
:1017FC0054030020A603002050030020BC0200204C
:10180C0080B582B000AF78607B681B68064A934253
:10181C0005D1064B01221A70786803F0D5FE00BF83
:10182C000837BD4680BD00BF00080040B013002043
:10183C0080B400AF72B600BF00BFFDE780B584B0C6
:10184C0000AF03463960FB71FB79F72B07D9FB79A5
:10185C0000220021184600F0A1F8494B8CE0FB79DE
:10186C00F02B09D1464A3B685360464B01221A7053
:10187C00454B00221A701CE0FB79F72B07D1414B2A
:10188C001B78002B03D03F4B00221A7011E03D4B0C
:10189C001B78002B0DD03C4B1B780F2B09D83A4BE7
:1018AC001B785A1CD1B2384A11701946374AFB7949
:1018BC00535497F90730002B25DA314A3B685360B3
:1018CC00334AFB791370334B00221A7000F0F6F98F
:1018DC00034683F00103DBB2002B04D0386800F020
:1018EC00CDF900F0EBF92A4B1B7803F0F003C02B79
:1018FC0005D0274B1B7803F0F003D02B01D1204BE4
:10190C003AE01F4B38E0224B1B78002B01D11C4BCB
:10191C0032E0204B1B785A1CD1B21E4A117019466A
:10192C001D4AFB7953541A4B1B7803F0F003C02B60
:10193C0005D0174B1B7803F0F003D02B01D10123FA
:10194C0000E00223FB73134B1B78FA7B9A4212D8EC
:10195C000F4B1878104B1978FB7B022B02D10E4BD6
:10196C005B7800E000231A4600F018F800F0DEF86F
:10197C00084B00221A70024B18461037BD4680BD2A
:10198C00B4130020C7130020D8130020C813002064
:10199C00C1130020C6130020C413002080B586B0EC
:1019AC0002AF0346FB710B46BB7113467B71FB798F
:1019BC0003F00F03DBB20133FB73FB7923F00F034E
:1019CC00BB733C4AFB7B13723A4AFB791370394A5E
:1019DC00BB795370374A7B79937007F10802BB7956
:1019EC001146184600F076F807F108031846FEF782
:1019FC00A7FB0346032B0ED107F108031846FEF78D
:101A0C009FFB03461A4607F1080313442A491A465A
:101A1C000B461B881380BB7BB02B2DD0B02B37DC37
:101A2C00802B1CD0902B33D17B79002B0CD0FA7BE4
:101A3C007B79019307F10803009313461F4A162183
:101A4C001F4805F021F92FE0FA7B07F108030093FA
:101A5C0013461C4A16211A4805F016F924E0FA7BA5
:101A6C007B79019307F1080300931346164A16215C
:101A7C00134805F009F917E0F97BBB797A790192E3
:101A8C0000930B46114A16210D4805F0FDF80BE0AA
:101A9C00F979BB797A79019200930B460C4A16219D
:101AAC00074805F0F1F800BF054B18461037BD4646
:101ABC0080BD00BFB4130020008000080480000823
:101ACC00DC13002018800008288000083C800008E7
:101ADC004C80000880B584B000AF03463960FB71C0
:101AEC00FB790F4AA2FB0323DB08DBB2013BFB7340
:101AFC00FA790B4BA3FB0213D9080B465B000B4482
:101B0C009B00D31ABB73BB7B064A52F82320FB7B8A
:101B1C000549386805F0EEF800BF1037BD4680BDAA
:101B2C00ABAAAAAA180000205C80000880B400AF01
:101B3C00034B01221A7000BFBD4680BC704700BF2A
:101B4C00C013002080B400AF034B00221A7000BFFA
:101B5C00BD4680BC704700BFC013002080B400AFEE
:101B6C00034B1B78DBB21846BD4680BC704700BFE8
:101B7C00C013002080B400AF034B00221A7000BFCA
:101B8C00BD4680BC704700BF5414002080B487B0A1
:101B9C0000AF78603960154B1B78072B20D8134B9E
:101BAC001B785A1CD1B2114A11701A4610491346AF
:101BBC005B0013449B000B44796819600C49134675
:101BCC005B0013449B000B440433396819600849CB
:101BDC0013465B0013449B000B44083300221A602D
:101BEC0000BF1C37BD4680BC704700BF541400209A
:101BFC00F413002080B582B000AF0023FB712DE000
:101C0C001B4B1968FA791B4813465B0013449B0065
:101C1C00034408331B68C91AFA79164813465B004B
:101C2C0013449B00034404331B68994213D3FA7981
:101C3C000F4B19680F4813465B0013449B00034479
:101C4C0008331960FA790B4913465B0013449B0067
:101C5C000B441B689847FB790133FB71064B1B78CF
:101C6C00FA799A42CCD300BF00BF0837BD4680BD7D
:101C7C004C030020F41300205414002080B483B0D3
:101C8C0000AF7860054B01221A70054A7B6813601F
:101C9C0000BF0C37BD4680BC704700BF55140020F8
:101CAC005814002080B400AF034B00221A7000BF00
:101CBC00BD4680BC704700BF5514002080B400AFF7
:101CCC00024B1B781846BD4680BC7047551400204B
:101CDC0080B483B000AF7860084B1B7883F00103AD
:101CEC00DBB2002B01D0002303E0054B1B687A68A4
:101CFC00D31A18460C37BD4680BC704755140020CB
:101D0C005814002080B400AF00BFBD4680BC7047A3
:101D1C0080B586B004AF0346FB714FF0FF330293DE
:101D2C0001230193FB1D009301230022782103481A
:101D3C0002F080FC00BF0837BD4680BD900100203A
:101D4C0080B586B004AF786039603B689BB24FF0C9
:101D5C00FF32029201937B68009301234022782189
:101D6C00034802F067FC00BF0837BD4680BD00BFCA
:101D7C009001002080B500AFFFF7C4FF642001F094
:101D8C0047FF002000F090FA2020FFF7C1FF002051
:101D9C00FFF7BEFFB020FFF7BBFFC820FFF7B8FF6F
:101DAC000020FFF7B5FF1020FFF7B2FF4020FFF730
:101DBC00AFFFFF2000F064FAA120FFF7A9FFA620D7
:101DCC00FFF7A6FFA820FFF7A3FF3F20FFF7A0FF18
:101DDC00A420FFF79DFFD320FFF79AFF0020FFF709
:101DEC0097FFD520FFF794FFF020FFF791FFD92044
:101DFC00FFF78EFF2220FFF78BFFDA20FFF788FF1B
:101E0C001220FFF785FFDB20FFF782FF2020FFF772
:101E1C007FFF8D20FFF77CFF1420FFF779FF012057
:101E2C0000F042FA002000F00FF800F025F8054B06
:101E3C0000221A80034B00225A80024B01221A7195
:101E4C0000BF80BD5C18002080B582B000AF034697
:101E5C00FB71FB79002B01D1002300E0FF234FF431
:101E6C0080621946034805F03FF800BF0837BD46AD
:101E7C0080BD00BF5C14002080B582B000AF002391
:101E8C00FB7116E0FB79503BDBB21846FFF740FFC5
:101E9C000020FFF73DFF1020FFF73AFFFB79DB0135
:101EAC00084A134480211846FFF74AFFFB79013397
:101EBC00FB71FB79072BE5D900BF00BF0837BD4686
:101ECC0080BD00BF5C14002080B483B000AF03461B
:101EDC00FB710B46BB7113467B7197F90730002BD6
:101EEC003DDBBB793F2B3AD87B79012B1AD1FA79A0
:101EFC00BB79DB08D8B20346DB0113441A4AD35C26
:101F0C005AB2BB7903F00703012101FA03F35BB268
:101F1C00134359B2FA790346DB011344C9B2124A8E
:101F2C00D1541DE0FA79BB79DB08D8B20346DB014A
:101F3C0013440D4AD35C5AB2BB7903F00703012159
:101F4C0001FA03F35BB2DB435BB2134059B2FA798B
:101F5C000346DB011344C9B2034AD15400E000BF6D
:101F6C000C37BD4680BC70475C14002090B589B01E
:101F7C0000AF0446384680E80E002346FB73FB7B1B
:101F8C001F2B02D9FB7B7E2B01D9002379E0BB6888
:101F9C00002B05D0BA68FB7B203B13441B7800E078
:101FAC003B78FB75394B1B881A46FB7D1344802B01
:101FBC0006DC364B5B881A467B781344402B01DDDC
:101FCC0000235EE00023FB614DE07A68FB7B203B45
:101FDC00797801FB03F31946FB690B445B0013444E
:101FEC001B883B610023BB6136E03A69BB6902FA8E
:101FFC0003F303F40043002B13D0244B1B88DAB2F9
:10200C00BB69DBB21344D8B2204B5B88DAB2FB69F4
:10201C00DBB21344DBB297F830201946FFF754FFBC
:10202C0017E01A4B1B88DAB2BB69DBB21344D8B287
:10203C00164B5B88DAB2FB69DBB21344D9B297F862
:10204C003030002B0CBF01230023DBB21A46FFF704
:10205C003BFFBB690133BB61FB7DBA699A42C4D3B8
:10206C00FB690133FB617B781A46FB699342ACD365
:10207C00064B1A88FB7D9BB213449AB2034B1A8011
:10208C00FB7B18462437BD4690BD00BF5C18002072
:10209C0080B586B002AFF860384680E80E0013E0D9
:1020AC00FB6818783B7E00933B460ECBFFF75EFF38
:1020BC0003461A46FB681B789A4202D0FB681B78D1
:1020CC0008E0FB680133FB60FB681B78002BE7D151
:1020DC00FB681B7818461037BD4680BD80B483B0B2
:1020EC0000AF03460A46FB711346BB71FB799AB2EB
:1020FC00054B1A80BB799AB2034B5A8000BF0C3740
:10210C00BD4680BC704700BF5C18002090B589B0FC
:10211C0000AF0446084611461A462346FB71034697
:10212C00BB710B467B7113463B717A79FB79D31AE1
:10213C00002BB8BF5B42BB613A79BB79D31A002B39
:10214C00B8BF5B427B61FA797B799A4201D2012359
:10215C0001E04FF0FF333B61BA793B799A4201D2EF
:10216C00012301E04FF0FF33FB60BA697B69D31A9E
:10217C00FB6197F8302039797B791846FFF7A4FE7C
:10218C0024E097F83020B979FB791846FFF79CFECC
:10219C00FB695B00BB607B695B42BA689A4208DDF5
:1021AC00FA697B69D31AFB613B69DAB2FB79134498
:1021BC00FB71BA68BB699A4208DAFA69BB691344C5
:1021CC00FB61FB68DAB2BB791344BB71FA797B799A
:1021DC009A42D6D1BA793B799A42D2D100BF2437F0
:1021EC00BD4690BD90B585B000AF0446084611467B
:1021FC001A462346FB710346BB710B467B71134693
:10220C003B71FA797B79934228BF13467B737A79B9
:10221C00FB79934238BF13463B73BA793B799342AF
:10222C0028BF1346FB723A79BB79934238BF1346E9
:10223C00BB72FB7AFB7317E07B7BBB7309E097F8EF
:10224C002020F97BBB7B1846FFF73EFEBB7B01339E
:10225C00BB73BA7B3B7B9A4203D897F90E30002BA9
:10226C00EDDAFB7B0133FB73FA7BBB7A9A4203D822
:10227C00FB7B3F2BE0D900BF00BF1437BD4690BDA0
:10228C0080B584B000AF0346FB718123FB73FB7BED
:10229C001846FFF73DFDFB791846FFF739FD00BFE7
:1022AC001037BD4680BD000080B584B000AF03463A
:1022BC00FB71FB79002B05D0AF23FB73084B01227C
:1022CC005A7104E0AE23FB73054B00225A71FB7B61
:1022DC001846FFF71DFD00BF1037BD4680BD00BF7F
:1022EC005C18002080B485B000AF154B9B69144A74
:1022FC0043F001039361124B9B6903F00103BB6034
:10230C00BB680F4BDB690E4A43F08053D3610C4B17
:10231C00DB6903F080537B607B680A4B5B68FB6076
:10232C00FB6823F0E063FB60FB6843F00073FB6029
:10233C00044AFB68536000BF1437BD4680BC70472D
:10234C00001002400000014080B588B000AF7860FA
:10235C0007F1100300221A605A609A60DA607B68F9
:10236C001B68154A934223D1144B9B69134A43F0C3
:10237C0008039361114B9B6903F00803FB60FB6836
:10238C00C0233B6112237B610323FB6107F1100324
:10239C0019460B4801F026FE084BDB69074A43F44B
:1023AC000013D361054BDB6903F40013BB60BB68FE
:1023BC0000BF2037BD4680BD0054004000100240D5
:1023CC00000C014080B58AB000AF786007F11803AB
:1023DC0000221A605A609A60DA607B681B68B3F15D
:1023EC00804F24D1284BDB69274A43F00103D3618A
:1023FC00254BDB6903F001037B617B69224B9B69F5
:10240C00214A43F0040393611F4B9B6903F00403BF
:10241C003B613B690323BB610023FB6101233B62EE
:10242C0007F118031946194801F0DCFD28E07B6818
:10243C001B68174A934223D1134BDB69124A43F0B2
:10244C000203D361104BDB6903F00203FB60FB68F2
:10245C000D4B9B690C4A43F0040393610A4B9B6937
:10246C0003F00403BB60BB68C023BB610023FB61AA
:10247C0001233B6207F118031946044801F0B2FD31
:10248C0000BF2837BD4680BD001002400008014047
:10249C000004004080B584B000AF78607B681B6896
:1024AC000D4A934213D10D4BDB690C4A43F00403E4
:1024BC00D3610A4BDB6903F00403FB60FB68002269
:1024CC0002211E2001F09FFC1E2001F0B8FC00BF71
:1024DC001037BD4680BD00BF000800400010024010
:1024EC0080B58AB000AF786007F1180300221A603B
:1024FC005A609A60DA607B681B683B4A93423AD117
:10250C003A4B9B69394A43F480439361374B9B693F
:10251C0003F480437B617B69344B9B69334A43F002
:10252C0004039361314B9B6903F004033B613B69EA
:10253C004FF40073BB610223FB6103237B6207F141
:10254C00180319462A4801F04DFD4FF48063BB6116
:10255C000023FB6100233B6207F118031946244852
:10256C0001F040FD00220021252001F04CFC25202B
:10257C0001F065FC34E07B681B681E4A93422FD146
:10258C001A4BDB69194A43F40033D361174BDB69EF
:10259C0003F40033FB60FB68144B9B69134A43F054
:1025AC0004039361114B9B6903F00403BB60BB688C
:1025BC000423BB610223FB6103237B6207F1180335
:1025CC0019460B4801F00EFD0823BB610023FB618B
:1025DC0000233B6207F118031946054801F002FD80
:1025EC0000BF2837BD4680BD0038014000100240B6
:1025FC00000801400044004080B584B000AF0346A1
:10260C00FB80FB88102B02D0202B12D023E0FB8800
:10261C001946134801F06AFE0346FB73FB7B002B43
:10262C000CBF01230023DBB219460020FEF79EF8F5
:10263C0011E0FB8819460A4801F058FE0346FB736B
:10264C00FB7B002B0CBF01230023DBB219460120BE
:10265C00FEF78CF800BF00BF1037BD4680BD00BF31
:10266C000008014080B400AF00BFFDE780B400AFAC
:10267C0000BFFDE780B400AF00BFFDE780B400AF42
:10268C0000BFFDE780B400AF00BFFDE780B400AF32
:10269C0000BFBD4680BC704780B400AF00BFBD46D4
:1026AC0080BC704780B400AF00BFBD4680BC704793
:1026BC0080B500AF01F0DDFB01F08EFA00BF80BDEC
:1026CC0080B500AF102001F059FE00BF80BD80B571
:1026DC0000AF202001F052FE00BF80BD80B500AFDE
:1026EC00024803F01FF900BF80BD00BF7402002038
:1026FC0080B500AF024803F02BFC00BF80BD00BFCB
:10270C00BC02002080B586B000AFF860B9607A607A
:10271C0000237B610AE0AFF300800146BB685A1CC2
:10272C00BA60CAB21A707B6901337B617A697B68C3
:10273C009A42F0DB7B6818461837BD4680BD80B5E1
:10274C0086B000AFF860B9607A6000237B6109E065
:10275C00BB685A1CBA601B781846FEF7C1FF7B6930
:10276C0001337B617A697B689A42F1DB7B6818469E
:10277C001837BD4680BD80B483B000AF78604FF091
:10278C00FF3318460C37BD4680BC704780B483B00D
:10279C0000AF786039603B684FF400525A600023F8
:1027AC0018460C37BD4680BC704780B483B000AF70
:1027BC007860012318460C37BD4680BC704780B446
:1027CC0085B000AFF860B9607A6000231846143702
:1027DC00BD4680BC7047000080B586B000AF786005
:1027EC00144A154BD31A7B617B693B61134B1B68F5
:1027FC00002B02D1114B124A1A60104B1A687B68DD
:10280C0013443A699A4207D204F0BCFB03460C22EB
:10281C001A604FF0FF3309E0084B1B68FB60074B55
:10282C001A687B681344054A1360FB68184618370E
:10283C00BD4680BD0050002000040000641800203C
:10284C00B045002080B400AF00BFBD4680BC7047CF
:10285C0080B584B002AF4FF40051234801F075FDF0
:10286C0001F044F9034683F00103DBB2002B36D0B0
:10287C001E4B1B8803F003039BB2002B02D10023D9
:10288C003B701EE00023FB7108E0FB7908333B44EE
:10289C002E2203F8082CFB790133FB71FA79134BC8
:1028AC001B88013B594203F0030301F0030158BF9D
:1028BC004B429A42E9DDFB7908333B44002203F892
:1028CC00082C0A4B1B8801339AB2084B1A803846E5
:1028DC000123009301230C220121FEF721FA00BFF2
:1028EC000837BD4680BD00BF0010014068180020AD
:1028FC0080B582B000AF1E4B1B685B6A1BB2DA0F4F
:10290C0013445B10FB801B4B1B685B6ABB80FA8813
:10291C00194BB3F900309BB2D31A9BB27B80164A89
:10292C00FB881380B7F90230002B04D0B7F90230C2
:10293C00184600F093FB114BB3F90030B7F90420A3
:10294C009A4210D0B7F9043019460D4804F02CF90E
:10295C00BB881846FEF7A4FB03461846FEF700FB9F
:10296C00064ABB88138000BF0837BD4680BD00BF38
:10297C00E40100202C0200206A1800206C180020B2
:10298C006480000880B500AFFDF776FF0020FEF7ED
:10299C005FF80346012B02D0022B04D007E0002085
:1029AC00FDF7CAFE03E00020FDF7C6FE00BF0120C4
:1029BC00FEF74EF80346012B02D0022B02D002E0A8
:1029CC0000BF00E000BF00BF80BD000080B500AFBD
:1029DC004FF4FA710648FFF7D9F815210548FFF7AF
:1029EC00D5F80D210448FFF7D1F800BF80BD00BF1A
:1029FC005D280008FD2800089129000880B58EB0DC
:102A0C0002AF254B254A1A60254B01221A70002370
:102A1C000093012301224FF085414FF07E5000F0CE
:102A2C00F7FF204B5B78023BDBB200220092802246
:102A3C0000217E20FFF7D6FB1B4B1A4600231360A8
:102A4C0053609360194B1A460023136053609360D4
:102A5C00D3601361536193610023FB850BE00E4B34
:102A6C001B68FA8D1A800C4B1B6810330A4A1360D2
:102A7C00FB8D0133FB85FB8DB3F52F7FEFD3064B1D
:102A8C00064A1A600A4B1B6800225A624FF42F73D5
:102A9C0018463037BD4680BD584400209818002099
:102AAC004C00002098860008701800207C1800202C
:102ABC00E401002080B582B000AF7860786800F047
:102ACC0009F8786800F0B0F8FFF73CF800BF083759
:102ADC00BD4680BD80B483B000AF78604D4B1B68A1
:102AEC007A6852689A604B4B1B687A68127A1A7330
:102AFC00484B1B687A6812789A70464B1B687A6848
:102B0C005278DA70434B1B687A6892781A71414B91
:102B1C001B6810333F4A13603E4B1B683E4A93427E
:102B2C0002D33C4B3D4A1A603D4BB3F902309BB289
:102B3C0001339BB21AB23A4B5A80394B01221A70AC
:102B4C00374BB3F902309BB2B3F52F7F0DD3344B17
:102B5C0001221A71324BB3F902301A46314BA3FBE6
:102B6C0002231B0ADAB22E4B5A712D4B1B79002B08
:102B7C0002D04FF42F7303E0294BB3F902309BB210
:102B8C00274AD380264BB3F90230013B1A46254B1A
:102B9C00A3FB02131B0A4FF42F7101FB03F3D31A8F
:102BAC0003F52F721F4BA3FB02131B0A4FF42F715B
:102BBC0001FB03F3D31A9AB2194B1A81184B1B79E8
:102BCC0083F00103DBB2002B03D0154B00225A819A
:102BDC001AE0134B1B8901331A46124BA3FB021349
:102BEC001B0A4FF42F7101FB03F3D31A03F52F7259
:102BFC000C4BA3FB02131B0A4FF42F7101FB03F3C5
:102C0C00D31A9AB2064B5A8100BF0C37BD4680BC12
:102C1C00704700BF584400205844002098180020EA
:102C2C007018002091739F5D90B587B002AF7860EB
:102C3C00FDF792FD0346002B03D0012B00F0B28070
:102C4C00E0E0724BB3F902301A46714BA3FB02134E
:102C5C001B0A4FF42F7101FB03F3D31A03F52F72E8
:102C6C006B4BA3FB02131B0A4FF42F7101FB03F3F5
:102C7C00D31A1846FDF722FB034666491846FDF7A2
:102C8C0029FC0346FB60614B5B790133002B03F09D
:102C9C000103B8BF5B42DAB25C4B5B79002B14BF0B
:102CAC0001230023DBB20093134600224FF00001F6
:102CBC00F86800F0ADFEFEF7DBF90346002B07D0F9
:102CCC00FEF7D6F903461A467B681B7A9A4237D12F
:102CDC007B685B681846FEF7FBFFB860FEF716F8DA
:102CEC0003461C4600F092FD03460022B9682046BC
:102CFC00FEF77AF8484B1B78012B02D10020FEF727
:102D0C0045F97B6818787B6859787B689B781A46FC
:102D1C00FEF744FE404B1978012300930123002257
:102D2C00FDF7FEFF3C4B1B780133DAB23A4B1A70BD
:102D3C00394B1B78062B33D9374B01221A702FE0F5
:102D4C00364B5B78023BDBB20022009280220021E2
:102D5C007E20FFF747FA324B1B785A1CD1B2304A0F
:102D6C00117003F00103DBB2002B0BD02B4B5B7803
:102D7C00023BDBB201220092802203217E20FFF76E
:102D8C0031FA0AE0254B5B78023BDBB20122009260
:102D9C00802200217E20FFF725FAFFF76DF831E045
:102DAC0000BF2FE01D4B5B78023BDBB20022009290
:102DBC00802200217E20FFF715FA1A4B1B785A1C33
:102DCC00D1B2184A117003F00103DBB2002B0BD007
:102DDC00124B5B78023BDBB2012200928022032172
:102DEC007E20FFF7FFF90AE00C4B5B78023BDBB26D
:102DFC0001220092802200217E20FFF7F3F9FFF7D9
:102E0C003BF800BF00BF1437BD4690BD70180020C2
:102E1C0091739F5D00002F444C00002098860008A1
:102E2C005C4400205D44002080B584B000AF0346B4
:102E3C00FB800B46BB801346FB70FB88FB81BB8879
:102E4C00002B0BD12A4B1B79002B04D0284BB3F948
:102E5C0002309BB201E04FF42F73BB800023BB8187
:102E6C003CE0FB78012B10D1B7F90620BB89D31AB3
:102E7C0003F52F721F4BA3FB02131B0A4FF42F7188
:102E8C0001FB03F3D31AFB8110E0B7F906309A1C4F
:102E9C00BB89134403F52F72164BA3FB02131B0AB9
:102EAC004FF42F7101FB03F3D31AFB81FEF7E0F80B
:102EBC000346002B0CD0FEF7DBF803461946B7F996
:102ECC000E300D4A1B0113440C331B78994202D16E
:102EDC00B7F90E3008E0BB890133BB81BA89BB88D6
:102EEC009A42BED340F2BD2318461037BD4680BD72
:102EFC007018002091739F5D9818002080B584B0E5
:102F0C0002AF514B1B8BFB8001237B7194E07B79CF
:102F1C004D4A043332F913309BB2B3F52F7F0AD9E3
:102F2C007B790133D9B20123009301230022474856
:102F3C00FDF7F6FE84E0FEF79BF80346002B2AD142
:102F4C007B79414A043332F91330414A1B01134453
:102F5C00023318787B793C4A043332F913303C4AFB
:102F6C001B011344033319787B79374A043332F944
:102F7C001330374A1B01134404331B781A46FEF7EF
:102F8C000DFD7B790133D9B201230093012300227B
:102F9C00FDF7C6FE4DE0B7F906302E4A52899B1A52
:102FAC0003F52F722C4BA3FB02131B0A4FF42F714A
:102FBC0001FB03F3D31A7B807988B7F90630012221
:102FCC001846FFF731FF0346FB80FB88B3F52F7FD4
:102FDC000AD97B790133D9B2012300930123002252
:102FEC001A48FDF79DFE2BE0B7F90630184A1B0175
:102FFC00134402331878B7F90630154A1B011344F1
:10300C0003331978B7F90630114A1B011344043302
:10301C001B781A46FEF7C2FC7B790133D9B2012327
:10302C00009301230022FDF77BFEFB88013B9BB242
:10303C00FB807B7901337B717B79052B7FF667AF46
:10304C000837BD4680BD00BF7C1800207880000882
:10305C00981800207018002091739F5D90B58BB06C
:10306C0002AF0346FB80A54BB3F90230002B08D10D
:10307C0001230093012300220321A148FDF750FEF8
:10308C00F4E2A04B1B7883F00103DBB2002B45D09C
:10309C00B7F90630002B00F3E8829A4B01221A7024
:1030AC00964BB3F902309AB2964BDA80934BDA888E
:1030BC00944B9A80934B00229A82924B01229A76DF
:1030CC00012000F093FB8D4B1B8901339BB21AB28C
:1030DC008C4B5A808B4AFB88D3828A4BB3F90230D3
:1030EC009AB2FB8813449BB21AB2864B5A80854B1A
:1030FC00B3F90220834B1A83824BB3F90200814B44
:10310C009A88804BB3F916309BB213449BB20133AF
:10311C009BB21BB2194600F083FBB4E0794BB3F9B8
:10312C0016309AB2FB8813449BB21AB2754BDA82F2
:10313C00744BDB881A46714BB3F902309A4210D0AB
:10314C006E4BB3F902309AB26E4BDB88D31A9BB23A
:10315C001AB26C4B9A82694BB3F902309AB2694B32
:10316C00DA80B7F90630002B43DD664B00225A702B
:10317C00644BB3F91620634BB3F914309A4218DB45
:10318C00614802F021FA604B1B6800225A625F4BC7
:10319C0000221A700020FDF7F9FE0020FDF7CCFA92
:1031AC00584B00221A700020FDF79EFD00F064FAC7
:1031BC005CE2544B00229A76002000F017FB514B36
:1031CC00B3F902309AB2FB8813449BB21AB24D4B3E
:1031DC005A804C4BB3F902004A4B9A88494BB3F9CD
:1031EC0016309BB213449BB21BB2194600F018FB6D
:1031FC0049E0444BB3F916301A46424B9B885B426C
:10320C009A421FDC3F4B9B88C3F101039BB21AB25D
:10321C003C4BDA82394B5B891AB23A4B5A80394BA8
:10322C0001225A70374BB3F90200364B9A88354B52
:10323C00B3F916309BB213449BB21BB2194600F083
:10324C00EFFA20E02F4B01229A76012000F0CEFA03
:10325C002C4BB3F902309AB2FB8813449BB21AB2CE
:10326C00284B5A80274BB3F90200264B9A88254BE2
:10327C00B3F916309BB213449BB201339BB21BB211
:10328C00194600F0CDFA0120FDF756FA1D4B9B882C
:10329C00062B28BF06239BB2BB83184B1B7983F0EC
:1032AC000103DBB2002B37D0164B9B881A464FF428
:1032BC00604393FBF2F3164A1360124B9B8818463B
:1032CC00104BB3F902301A460C4B5B89D31A03F539
:1032DC002F72104BA3FB02131B0A4FF42F7101FB2F
:1032EC0003F3D31AC31A013B094A126802FB03F316
:1032FC009B0A9BB20E339BB2FB832EE0701800200E
:10330C00888000087C18002074020020B013002074
:10331C005000002091739F5DC54B51221A60C54B24
:10332C00B3F902301A46C44B5B89D31A03F52F72DA
:10333C00C24BA3FB02131B0A4FF42F7101FB03F3C7
:10334C00D31AC3F52E730333B94A126802FB03F385
:10335C009B0A9BB20E339BB2FB83B64BB3F9163070
:10336C00002B13DAB7F91C30013B1846FCF7AAFF07
:10337C000446B7F91E301846FCF7A4FF014600239B
:10338C00009301230122204600F042FBA94BB3F924
:10339C00023003F52F72A94BA3FB02131B0A4FF447
:1033AC002F7101FB03F3D31AA54A1B0113440833F5
:1033BC001B681846FEF78CFCB8610020FDF7E6FD93
:1033CC00FDF756FE0346002B5CD19A4BB3F9023045
:1033DC001A46994B5B89D31A03F52F72974BA3FBB3
:1033EC0002131B0A4FF42F7101FB03F3D31A9AB289
:1033FC00904B9B7EB9690220FDF7F6FC8D4BB3F91F
:10340C00023003F52F728D4BA3FB02131B0A4FF4F2
:10341C002F7101FB03F3D31A894A1B0113440233A6
:10342C001878844BB3F9023003F52F72834BA3FB4E
:10343C0002131B0A4FF42F7101FB03F3D31A804ABA
:10344C001B011344033319787A4BB3F9023003F59B
:10345C002F727A4BA3FB02431B0A4FF42F7404FB0D
:10346C0003F3D31A764A1B01134404331B781A4610
:10347C00FEF794FA01230093012300220121FDF7AA
:10348C004FFCB6E06B4BB3F9183003F52F726B4B56
:10349C00A3FB02131B0A4FF42F7101FB03F3D31A86
:1034AC001BB2644A927E00211846FFF7BDFC03460E
:1034BC001A46604B1A835F4BB3F918309BB2B3F5C5
:1034CC002F7F7CD25B4BB3F9183003F52F725B4B1B
:1034DC00A3FB02131B0A4FF42F7101FB03F3D31A46
:1034EC00574A1B01134408331B681846FEF7F0FBC0
:1034FC00B861504BB3F918301A464F4B5B89D31A4D
:10350C0003F52F724D4BA3FB02131B0A4FF42F71C3
:10351C0001FB03F3D31A9AB2464B9B7EB969022086
:10352C00FDF762FC434BB3F9183003F52F72434B94
:10353C00A3FB02131B0A4FF42F7101FB03F3D31AE5
:10354C003F4A1B011344023318783A4BB3F9183035
:10355C0003F52F72394BA3FB02131B0A4FF42F7187
:10356C0001FB03F3D31A364A1B01134403331978B6
:10357C00304BB3F9183003F52F72304BA3FB0243D9
:10358C001B0A4FF42F7404FB03F3D31A2C4A1B01B0
:10359C00134404331B781A46FEF700FA01230093F8
:1035AC00012300220121FDF7BBFB224BB3F918309C
:1035BC009BB2013B9BB21AB21E4B1A8319E01D4BF6
:1035CC00B3F9023003F52F721C4BA3FB02131B0A39
:1035DC004FF42F7101FB03F3D31A07F108001A46BD
:1035EC00184903F087FB07F1080300211846FDF783
:1035FC008FFC104B5B78002B07D001230093012329
:10360C00002202211048FDF78BFBFDF7A5F80346BD
:10361C00002B02D0012B1DD028E00C4801F0D4FF68
:10362C000A4B1B6800225A62094B00221A701DE0DB
:10363C00500000207C1800207018002091739F5DB2
:10364C00981800209C8000087880000874020020E4
:10365C00B0130020074801F0B7FF064B1B6800228F
:10366C005A62044801F05EFF00E000BF2437BD46FB
:10367C0090BD00BF7402002080B58AB002AF524BDF
:10368C001B68524A9B1A1B119BB2013B9BB2FB83DA
:10369C004F4B00221A704E4B00225A704D4BB3F90F
:1036AC0002301A464C4BA3FB02131B0A4FF42F712A
:1036BC0001FB03F3D31A03F52F72474BA3FB021341
:1036CC001B0A4FF42F7101FB03F3D31A1846FCF7B6
:1036DC00F5FD034641491846FCF7FCFE0346BB6169
:1036EC003C4B5B790133002B03F00103B8BF5B4209
:1036FC00DAB2384B5B79002B14BF01230023DBB209
:10370C000093134600224FF00001B86900F080F9D5
:10371C00334B5B78023BDBB200220092802200210B
:10372C007E20FEF75FFDFDF7A3FC0346002B0CD0BB
:10373C00FDF79EFC03461946B7F91E30234A1B01C0
:10374C0013440C331B7899422CD10020FDF71EFC3E
:10375C00244B01221A701C4B1B68103B98781A4B97
:10376C001B68103BD978184B1B68103B1B791A4609
:10377C00FEF714F901230093012300220121FDF728
:10378C00CFFA114B1B68103B9B681846FEF7A0FA4A
:10379C00786100F03BF80346002279690020FDF7C0
:1037AC0023FB0BE0B7F91E203B1D0F49184603F015
:1037BC00A1FA3B1D00211846FDF7AAFBB7F91E30F4
:1037CC0018462037BD4680BD58440020981800206C
:1037DC007C1800207018002091739F5D00002F440E
:1037EC00988600084C0000209C80000880B483B0B0
:1037FC0000AF0346FB71044AFB79137000BF0C3712
:10380C00BD4680BC704700BF4D00002080B400AFA7
:10381C00024B1B781846BD4680BC70474D000020FB
:10382C0080B485B000AF03460A46FB801346BB80CC
:10383C00FB88BB810023FB811EE0FB89052B21D873
:10384C00B7F90C2093B2013B9BB2BB81134603F535
:10385C002F72174BA3FB02131B0A4FF42F7101FBA2
:10386C0003F3D31AFA8918B21249131D024621F830
:10387C001320FB890133FB81FA89B7F904309A4292
:10388C00DBDB0BE000BF09E0FB890A4A043340F2A2
:10389C00BD2122F81310FB890133FB81FB89052B19
:1038AC00F2D900BF00BF1437BD4680BC704700BFC3
:1038BC0091739F5D7C18002090B583B002AF4E4B86
:1038CC0001221A704C4B01229A760120FFF78EFFD1
:1038DC004A4B5B891AB2484B5A80474B9B885B42D8
:1038EC009BB21AB2444BDA82434BB3F90200424BFF
:1038FC009A88414BB3F916309BB213449BB20133F7
:10390C009BB21BB21946FFF78BFF0020FDF73EFB65
:10391C00394BB3F902301A46384B5B89D31A03F58D
:10392C002F72374BA3FB02131B0A4FF42F7101FBB1
:10393C0003F3D31A9AB2304B9B7E00210220FDF781
:10394C0053FA2D4BB3F9023003F52F722C4BA3FB1A
:10395C0002131B0A4FF42F7101FB03F3D31A294AEC
:10396C001B01134402331878234BB3F9023003F5CF
:10397C002F72234BA3FB02131B0A4FF42F7101FB75
:10398C0003F3D31A1F4A1B011344033319781A4B40
:10399C00B3F9023003F52F72194BA3FB02431B0A38
:1039AC004FF42F7404FB03F3D31A164A1B01134470
:1039BC0004331B781A46FDF7F1FF01230093012312
:1039CC0000220121FDF7ACF9002300930123012211
:1039DC004FF085410C4800F01BF80C4801F0F4FD49
:1039EC000A4B1B6800225A62084801F09BFD00BF7D
:1039FC000437BD4690BD00BF7C1800207018002015
:103A0C0091739F5D981800200000A0407402002064
:103A1C0090B587B002AFF860B96011461A460B46F4
:103A2C00FB711346BB71BB79002B0CBF0123002328
:103A3C00DBB200934023802208217D20FEF7D2FBCD
:103A4C00FB79002B02D0012B24D046E097F82030D4
:103A5C00002B07D0012300930C23802208217D200A
:103A6C00FEF7C0FB2049F868FCF780FC03461946BA
:103A7C004FF08540FCF770FB03461846FCF73CFE04
:103A8C000346D9B2BB790093402380227D20FEF7F8
:103A9C00A9FB22E04FF08541B868FCF723FE0346F2
:103AAC00002B02D04FF08543BB60B868FCF724FEB6
:103ABC000346DCB2F968B868FCF74EFB03461846BF
:103ACC00FCF71AFE0346DAB2BB7900931346802248
:103ADC0021467D20FEF786FB00BFFEF7CDF900BF27
:103AEC001437BD4690BD00BF0000604280B400AFEB
:103AFC00024B1B781846BD4680BC704770180020DE
:103B0C00FEF7A0FE0B480C490C4A002302E0D458E7
:103B1C00C4500433C4188C42F9D3094A094C00230D
:103B2C0001E013600432A242FBD303F031FAFDF73B
:103B3C00F1FA704700000020B8000020148700083C
:103B4C00B8000020B0450020FEE7000080B500AFB3
:103B5C00084B1B68074A43F010031360032000F066
:103B6C0047F90F2000F008F8FEF7BCFB00231846BD
:103B7C0080BD00BF0020024080B582B000AF7860ED
:103B8C00124B1A68124B1B7819464FF47A73B3FB1D
:103B9C00F1F3B2FBF3F3184600F05FF90346002B88
:103BAC0001D001230EE07B680F2B0AD80022796824
:103BBC004FF0FF3000F027F9064A7B6813600023B2
:103BCC0000E0012318460837BD4680BD48000020A0
:103BDC00580000205400002080B400AF054B1B7827
:103BEC001A46054B1B681344034A136000BFBD46BD
:103BFC0080BC7047580000206044002080B400AFA7
:103C0C00024B1B681846BD4680BC704760440020C0
:103C1C0080B584B000AF7860FFF7F0FFB8607B68C8
:103C2C00FB60FB68B3F1FF3F05D00A4B1B781A46CB
:103C3C00FB681344FB6000BFFFF7E0FF0246BB6864
:103C4C00D31AFA689A42F7D800BF00BF1037BD46A6
:103C5C0080BD00BF5800002080B485B000AF7860F4
:103C6C007B6803F00703FB600C4BDB68BB60BA6836
:103C7C004FF6FF031340BB60FB681A02BB6813438B
:103C8C0043F0BF6343F40033BB60044ABB68D360AA
:103C9C0000BF1437BD4680BC704700BF00ED00E08C
:103CAC0080B400AF044BDB681B0A03F00703184613
:103CBC00BD4680BC704700BF00ED00E080B483B00F
:103CCC0000AF0346FB7197F90730002B0BDBFB7938
:103CDC0003F01F02064997F907305B09012000FA2F
:103CEC0002F241F8232000BF0C37BD4680BC704760
:103CFC0000E100E080B483B000AF03463960FB7193
:103D0C0097F90730002B0ADB3B68DAB20C4997F9BC
:103D1C0007301201D2B20B4483F800230AE03B684F
:103D2C00DAB20849FB7903F00F03043B1201D2B25B
:103D3C000B441A7600BF0C37BD4680BC704700BFE1
:103D4C0000E100E000ED00E080B489B000AFF86065
:103D5C00B9607A60FB6803F00703FB61FB69C3F190
:103D6C000703042B28BF0423BB61FB690433062B18
:103D7C0002D9FB69033B00E000237B614FF0FF326B
:103D8C00BB6902FA03F3DA43BB681A407B699A40B9
:103D9C004FF0FF317B6901FA03F3D9437B680B4089
:103DAC00134318462437BD4680BC704780B582B09B
:103DBC0000AF78607B68013BB3F1807F01D30123B6
:103DCC000FE00A4A7B68013B53600F214FF0FF3034
:103DDC00FFF790FF054B00229A60044B07221A60F4
:103DEC00002318460837BD4680BD00BF10E000E038
:103DFC0080B582B000AF78607868FFF72DFF00BF08
:103E0C000837BD4680BD80B586B000AF0346B960AB
:103E1C007A60FB7300237B61FFF742FF78617A685D
:103E2C00B9687869FFF790FF024697F90F30114691
:103E3C001846FFF75FFF00BF1837BD4680BD80B541
:103E4C0082B000AF0346FB7197F907301846FFF7B5
:103E5C0035FF00BF0837BD4680BD80B582B000AFCE
:103E6C0078607868FFF7A2FF034618460837BD460E
:103E7C0080BD80B500AFFDF725FC00BF80BD80B4D0
:103E8C0085B000AF78600023FB737B6893F821301A
:103E9C00DBB2022B08D07B6804229A637B68002279
:103EAC0083F82020012320E07B681B681A687B685C
:103EBC001B6822F00E021A607B681B681A687B680C
:103ECC001B6822F001021A607B681A6C7B68DB6B42
:103EDC00012101FA02F25A607B68012283F8212049
:103EEC007B68002283F82020FB7B18461437BD46E4
:103EFC0080BC704780B584B000AF78600023FB7342
:103F0C007B6893F82130DBB2022B05D07B6804224E
:103F1C009A630123FB7351E07B681B681A687B680A
:103F2C001B6822F00E021A607B681B681A687B689B
:103F3C001B6822F001021A607B681B68224A9342BC
:103F4C0029D07B681B68214A934222D07B681B686E
:103F5C001F4A93421AD07B681B681E4A934212D0A8
:103F6C007B681B681C4A93420AD07B681B681B4AFF
:103F7C00934202D14FF480130EE04FF080730BE0AC
:103F8C004FF4803308E04FF4805305E04FF4807316
:103F9C0002E0102300E00123114A53607B680122E8
:103FAC0083F821207B68002283F820207B685B6BE0
:103FBC00002B03D07B685B6B78689847FB7B1846BB
:103FCC001037BD4680BD00BF080002401C000240F7
:103FDC003000024044000240580002406C00024095
:103FEC000000024080B48BB000AF786039600023D1
:103FFC007B6200233B6269E101227B6A02FA03F3D4
:10400C00FB613B681B68FA691340BB61BA69FB69C9
:10401C009A4240F058813B685B689A4A93425ED062
:10402C00984A934275D8984A934258D0964A9342EC
:10403C006FD8964A934252D0944A934269D8944A84
:10404C0093424CD0924A934263D8924A934246D0C0
:10405C00904A93425DD8122B2AD8122B59D801A220
:10406C0052F823F0EB400008C5400008D740000888
:10407C00194100081F4100081F4100081F4100089A
:10408C001F4100081F4100081F4100081F41000884
:10409C001F4100081F4100081F4100081F41000874
:1040AC001F4100081F410008CD400008E1400008F6
:1040BC00794A934213D02CE03B68DB683B6229E0E1
:1040CC003B68DB6804333B6224E03B68DB68083305
:1040DC003B621FE03B68DB680C333B621AE03B68D9
:1040EC009B68002B02D104233B6213E03B689B6866
:1040FC00012B05D108233B627B68FA691A6109E040
:10410C0008233B627B68FA695A6103E000233B6237
:10411C0000E000BFBB69FF2B01D87B6801E07B6826
:10412C0004337B61BB69FF2B02D87B6A9B0002E0E6
:10413C007B6A083B9B003B617B691A680F213B69DA
:10414C0001FA03F3DB431A40396A3B6901FA03F3C2
:10415C001A437B691A603B685B6803F08053002B41
:10416C0000F0B1804D4B9B694C4A43F001039361C5
:10417C004A4B9B6903F00103BB60BB68484A7B6AEE
:10418C009B08023352F82330FB607B6A03F0030375
:10419C009B000F2202FA03F3DB43FA681340FB6027
:1041AC007B68404A934213D07B683F4A93420DD0C0
:1041BC007B683E4A934207D07B683D4A934201D1CB
:1041CC00032306E0042304E0022302E0012300E0C1
:1041DC0000237A6A02F0030292009340FA681343B8
:1041EC00FB602F497B6A9B080233FA6841F8232055
:1041FC003B685B6803F48013002B06D02D4B9A6848
:10420C002C49BB6913438B6006E02A4B9A68BB6947
:10421C00DB43284913408B603B685B6803F4001355
:10422C00002B06D0234BDA682249BB691343CB60C1
:10423C0006E0204BDA68BB69DB431E491340CB60B8
:10424C003B685B6803F40033002B06D0194B5A68AB
:10425C001849BB6913434B6006E0164B5A68BB699F
:10426C00DB43144913404B603B685B6803F48033B9
:10427C00002B21D00F4B1A680E49BB6913430B60FE
:10428C0021E000BF000032100000311000002210AD
:10429C00000021100000121000001110001002404C
:1042AC000000014000080140000C014000100140DA
:1042BC0000140140000401400B4B1A68BB69DB433E
:1042CC00094913400B607B6A01337B623B681A68B7
:1042DC007B6A22FA03F3002B7FF48EAE00BF00BF83
:1042EC002C37BD4680BC70470004014080B485B0BB
:1042FC0000AF78600B467B807B689A687B881340A4
:10430C00002B02D00123FB7301E00023FB73FB7B2A
:10431C0018461437BD4680BC704780B483B000AFDC
:10432C0078600B467B8013467B707B78002B03D028
:10433C007A887B681A6103E07B881A047B681A61AF
:10434C0000BF0C37BD4680BC704780B485B000AF51
:10435C0078600B467B807B68DB68FB607A88FB6847
:10436C0013401A04FB68D9437B880B401A437B68C3
:10437C001A6100BF1437BD4680BC704780B582B04F
:10438C0000AF0346FB80084B5A69FB881340002B97
:10439C0006D0054AFB885361FB881846FEF72CF9BA
:1043AC0000BF0837BD4680BD0004014080B584B015
:1043BC0000AF78607B68002B01D101232BE17B6877
:1043CC0093F83D30DBB2002B06D17B68002283F8DA
:1043DC003C207868FDF7B8FF7B68242283F83D20E9
:1043EC007B681B681A687B681B6822F001021A60E4
:1043FC007B681B681A687B681B6842F400421A6071
:10440C007B681B681A687B681B6822F400421A6080
:10441C0001F042F8F8607B685B68814A934207D8E8
:10442C00FB68804A934294BF01230023DBB206E071
:10443C00FB687D4A934294BF01230023DBB2002B1F
:10444C0001D00123E7E0FB68784AA2FB03239B0C15
:10445C00BB607B681B685B6823F03F017B681B6853
:10446C00BA680A435A607B681B681B6A23F03F01D9
:10447C007B685B686A4A934202D8BB68013309E0E7
:10448C00BB684FF4967202FB03F3694AA2FB032349
:10449C009B0901337A6812680B4313627B681B68B3
:1044AC00DB6923F44F4222F0FF027B685B685C49B6
:1044BC008B4219D8FB68591E7B685B685B00B1FBAB
:1044CC00F3F3591C40F6FC730B40002B0AD0FB682D
:1044DC00591E7B685B685B00B1FBF3F30133C3F3DC
:1044EC000B0351E004234FE07B689B68002B11D138
:1044FC00FB68581E7B6859680B465B000B44B0FB8D
:10450C00F3F30133C3F30B03002B0CBF0123002384
:10451C00DBB212E0FB68581E7B6859680B469B00A7
:10452C000B4499000B44B0FBF3F30133C3F30B03BF
:10453C00002B0CBF01230023DBB2002B01D0012385
:10454C0022E07B689B68002B0ED1FB68581E7B68B1
:10455C0059680B465B000B44B0FBF3F30133C3F318
:10456C000B0343F400430FE0FB68581E7B6859684B
:10457C000B469B000B4499000B44B0FBF3F3013347
:10458C00C3F30B0343F44043796809681343CB61CD
:10459C007B681B681B6823F0C0017B68DA697B6849
:1045AC001B6A1A437B681B680A431A607B681B688A
:1045BC009B6823F4034323F0FF037A6811697A683C
:1045CC00D26811437A6812680B4393607B681B684E
:1045DC00DB6823F0FF017B685A697B689B691A438F
:1045EC007B681B680A43DA607B681B681A687B6807
:1045FC001B6842F001021A607B6800221A647B6817
:10460C00202283F83D207B6800221A637B680022FD
:10461C0083F83E20002318461037BD4680BD00BFEE
:10462C00A08601007F841E00FF083D0083DE1B4333
:10463C00D34D621080B588B002AFF86008461146C1
:10464C001A4603467B810B463B811346FB80FFF7E2
:10465C00D5FA7861FB6893F83D30DBB2202B40F043
:10466C00D9807B690093192301226D49F86800F009
:10467C0071F90346002B01D00223CCE0FB6893F8C0
:10468C003C30012B01D10223C5E0FB68012283F8E9
:10469C003C20FB681B681B6803F00103012B07D04F
:1046AC00FB681B681A68FB681B6842F001021A6001
:1046BC00FB681B681A68FB681B6822F400621A60AE
:1046CC00FB68212283F83D20FB68402283F83E20C2
:1046DC00FB6800221A64FB683A6A5A62FB68BA8C5F
:1046EC005A85FB685B8D9AB2FB681A85FB684D4A4C
:1046FC00DA62F8883A8979897B690193BB6A0093FD
:10470C000346F86800F090F80346002B52D00123C2
:10471C0081E07A69B96AF86800F036FA0346002B32
:10472C000DD0FB681B6C042B07D1FB681B681A6847
:10473C00FB681B6842F400721A6001236BE0FB6893
:10474C005B6A1A78FB681B681A61FB685B6A5A1C07
:10475C00FB685A62FB681B8D013B9AB2FB681A8599
:10476C00FB685B8D9BB2013B9AB2FB685A85FB6878
:10477C001B685B6903F00403042B1BD1FB681B8DC6
:10478C00002B17D0FB685B6A1A78FB681B681A61F0
:10479C00FB685B6A5A1CFB685A62FB681B8D013B09
:1047AC009AB2FB681A85FB685B8D9BB2013B9AB28F
:1047BC00FB685A85FB681B8D002BAAD17A69B96AF4
:1047CC00F86800F029FA0346002B0DD0FB681B6C2F
:1047DC00042B07D1FB681B681A68FB681B6842F442
:1047EC0000721A60012316E0FB681B681A68FB68EC
:1047FC001B6842F400721A60FB68202283F83D208B
:10480C00FB68002283F83E20FB68002283F83C20E2
:10481C00002300E0022318461837BD4680BD00BFB8
:10482C00020010000000FFFF80B588B002AFF860F6
:10483C00084611461A4603467B810B463B811346BC
:10484C00FB80FB681B681A68FB681B6842F480726B
:10485C001A607B6A00933B6A00224FF00111F868E2
:10486C0000F078F80346002B0DD0FB681B681B6822
:10487C0003F48073B3F5807F03D1FB684FF40072AF
:10488C001A6403235FE07B89DBB21A46FB681B6862
:10489C0002F0FE021A617B6A3A6A2D49F86800F050
:1048AC00D3F80346002B01D001234CE000237B619D
:1048BC00FB681B685B697B61FB681B689B697B61A0
:1048CC007B697A6A396AF86800F05EF90346002B56
:1048DC000DD0FB681B6C042B07D1FB681B681A6896
:1048EC00FB681B6842F400721A6001232BE0FB8802
:1048FC00012B05D13B89DAB2FB681B681A6121E0F8
:10490C003B891B0A9BB2DAB2FB681B681A617A6A94
:10491C00396AF86800F038F90346002B0DD0FB68B3
:10492C001B6C042B07D1FB681B681A68FB681B689F
:10493C0042F400721A60012305E03B89DAB2FB688D
:10494C001B681A61002318461837BD4680BD00BF8E
:10495C000200010080B584B000AFF860B9603B6024
:10496C001346FB7148E03B68B3F1FF3F44D0FFF7BF
:10497C0045F90246BB69D31A3A689A4202D33B689E
:10498C00002B39D1BB681B0CDBB2012B0DD1FB68A2
:10499C001B685B69DA43BB6813409BB2002B0CBFEE
:1049AC0001230023DBB21A460CE0FB681B689B69F1
:1049BC00DA43BB6813409BB2002B0CBF01230023CE
:1049CC00DBB21A46FB799A4216D1FB6800221A63B5
:1049DC00FB68202283F83D20FB68002283F83E20F0
:1049EC00FB681B6C43F02002FB681A64FB68002216
:1049FC0083F83C20012323E0BB681B0CDBB2012BAA
:104A0C000DD1FB681B685B69DA43BB6813409BB232
:104A1C00002B0CBF01230023DBB21A460CE0FB6811
:104A2C001B689B69DA43BB6813409BB2002B0CBF1D
:104A3C0001230023DBB21A46FB799A4293D0002360
:104A4C0018461037BD4680BD80B584B000AFF86005
:104A5C00B9607A603B6071E0FB681B685B6903F4CA
:104A6C008063B3F5806F23D1FB681B681A68FB6801
:104A7C001B6842F400721A60FB681B686FF480625A
:104A8C005A61FB6800221A63FB68202283F83D20E0
:104A9C00FB68002283F83E20FB681B6C43F0040289
:104AAC00FB681A64FB68002283F83C20012367E052
:104ABC007B68B3F1FF3F41D0FFF7A0F802463B689B
:104ACC00D31A7A689A4202D37B68002B36D1BB6822
:104ADC001B0CDBB2012B0CD1FB681B685B69DA4346
:104AEC00BB6813409BB2002B14BF01230023DBB225
:104AFC000BE0FB681B689B69DA43BB6813409BB2F5
:104B0C00002B14BF01230023DBB2002B16D0FB6853
:104B1C0000221A63FB68202283F83D20FB680022E8
:104B2C0083F83E20FB681B6C43F02002FB681A6480
:104B3C00FB68002283F83C20012321E0BB681B0C9E
:104B4C00DBB2012B0CD1FB681B685B69DA43BB68D9
:104B5C0013409BB2002B14BF01230023DBB20BE0EC
:104B6C00FB681B689B69DA43BB6813409BB2002B44
:104B7C0014BF01230023DBB2002B7FF46DAF0023A5
:104B8C0018461037BD4680BD80B584B000AFF860C4
:104B9C00B9607A6034E0F86800F086F80346002BC0
:104BAC0001D0012334E0BB68B3F1FF3F28D0FFF7FD
:104BBC0025F802467B68D31ABA689A4202D3BB68BE
:104BCC00002B1DD1FB681B685B6903F08003802BF5
:104BDC0016D0FB6800221A63FB68202283F83D2064
:104BEC00FB68002283F83E20FB681B6C43F020021C
:104BFC00FB681A64FB68002283F83C20012307E061
:104C0C00FB681B685B6903F08003802BC3D1002316
:104C1C0018461037BD4680BD80B584B000AFF86033
:104C2C00B9607A6034E0F86800F03EF80346002B77
:104C3C0001D0012334E0BB68B3F1FF3F28D0FEF76D
:104C4C00DDFF02467B68D31ABA689A4202D3BB686E
:104C5C00002B1DD1FB681B685B6903F00403042B5C
:104C6C0016D0FB6800221A63FB68202283F83D20D3
:104C7C00FB68002283F83E20FB681B6C43F020028B
:104C8C00FB681A64FB68002283F83C20012307E0D0
:104C9C00FB681B685B6903F00403042BC3D100237E
:104CAC0018461037BD4680BD80B483B000AF786025
:104CBC007B681B685B6903F48063B3F5806F1BD161
:104CCC007B681B686FF480625A617B6800221A63F0
:104CDC007B68202283F83D207B68002283F83E20ED
:104CEC007B681B6C43F004027B681A647B680022AF
:104CFC0083F83C20012300E0002318460C37BD4606
:104D0C0080BC704780B586B000AF78607B68002BA4
:104D1C0001D1012372E27B681B6803F00103002BB5
:104D2C0000F08780924B5B6803F00C03042B0CD0D3
:104D3C008F4B5B6803F00C03082B12D18C4B5B6818
:104D4C0003F48033B3F5803F0BD1894B1B6803F41C
:104D5C000033002B6CD07B685B68002B68D101237F
:104D6C004CE27B685B68B3F5803F06D1804B1B68D7
:104D7C007F4A43F4803313602EE07B685B68002B22
:104D8C000CD17B4B1B687A4A23F480331360784B2D
:104D9C001B68774A23F4802313601DE07B685B68F3
:104DAC00B3F5A02F0CD1724B1B68714A43F48023CE
:104DBC0013606F4B1B686E4A43F4803313600BE037
:104DCC006B4B1B686A4A23F480331360684B1B6877
:104DDC00674A23F4802313607B685B68002B13D035
:104DEC00FEF70CFF386108E0FEF708FF02463B694E
:104DFC00D31A642B01D9032300E25D4B1B6803F427
:104E0C000033002BF0D014E0FEF7F8FE386108E018
:104E1C00FEF7F4FE02463B69D31A642B01D9032337
:104E2C00ECE1534B1B6803F40033002BF0D100E092
:104E3C0000BF7B681B6803F00203002B63D04C4B54
:104E4C005B6803F00C03002B0BD0494B5B6803F041
:104E5C000C03082B1CD1464B5B6803F48033002BEE
:104E6C0016D1434B1B6803F00203002B05D07B6863
:104E7C001B69012B01D00123C0E13D4B1B6823F0C2
:104E8C00F8027B685B69DB00394913430B603AE03D
:104E9C007B681B69002B20D0364B01221A60FEF771
:104EAC00ADFE386108E0FEF7A9FE02463B69D31A55
:104EBC00022B01D90323A1E12D4B1B6803F0020344
:104ECC00002BF0D02A4B1B6823F0F8027B685B693F
:104EDC00DB00274913430B6015E0264B00221A60B8
:104EEC00FEF78CFE386108E0FEF788FE02463B694F
:104EFC00D31A022B01D9032380E11D4B1B6803F04D
:104F0C000203002BF0D17B681B6803F00803002B15
:104F1C003AD07B689B69002B19D0174B01221A6081
:104F2C00FEF76CFE386108E0FEF768FE02463B694E
:104F3C00D31A022B01D9032360E10D4B5B6A03F0FA
:104F4C000203002BF0D0012000F0CEFA1CE00A4B3B
:104F5C0000221A60FEF752FE38610FE0FEF74EFE9B
:104F6C0002463B69D31A022B08D9032346E100BF42
:104F7C00001002400000424280044242924B5B6AA5
:104F8C0003F00203002BE9D17B681B6803F00403D8
:104F9C00002B00F0A6800023FB758B4BDB6903F024
:104FAC008053002B0DD1884BDB69874A43F080532B
:104FBC00D361854BDB6903F08053BB60BB68012375
:104FCC00FB75824B1B6803F48073002B18D17F4B4D
:104FDC001B687E4A43F480731360FEF70FFE386142
:104FEC0008E0FEF70BFE02463B69D31A642B01D98D
:104FFC00032303E1754B1B6803F48073002BF0D083
:10500C007B68DB68012B06D16F4B1B6A6E4A43F041
:10501C00010313622DE07B68DB68002B0CD16A4B1B
:10502C001B6A694A23F001031362674B1B6A664AC9
:10503C0023F0040313621CE07B68DB68052B0CD1A6
:10504C00614B1B6A604A43F0040313625E4B1B6A9C
:10505C005D4A43F0010313620BE05B4B1B6A5A4A37
:10506C0023F001031362584B1B6A574A23F00403C5
:10507C0013627B68DB68002B15D0FEF7BFFD38612F
:10508C000AE0FEF7BBFD02463B69D31A41F28832B7
:10509C00934201D90323B1E04B4B1B6A03F002038B
:1050AC00002BEED014E0FEF7A9FD38610AE0FEF704
:1050BC00A5FD02463B69D31A41F28832934201D9CD
:1050CC0003239BE0404B1B6A03F00203002BEED141
:1050DC00FB7D012B05D13C4BDB693B4A23F0805314
:1050EC00D3617B68DB69002B00F08780364B5B68F3
:1050FC0003F00C03082B61D07B68DB69022B46D1D3
:10510C00334B00221A60FEF779FD386108E0FEF798
:10511C0075FD02463B69D31A022B01D903236DE0BE
:10512C00294B1B6803F00073002BF0D17B681B6AC2
:10513C00B3F5803F08D1244B5B6823F400327B68C5
:10514C009B68214913434B601F4B5B6823F474121B
:10515C007B68196A7B685B6A0B431B4913434B6082
:10516C001B4B01221A60FEF749FD386108E0FEF77F
:10517C0045FD02463B69D31A022B01D903233DE0BE
:10518C00114B1B6803F00073002BF0D035E0104B73
:10519C0000221A60FEF732FD386108E0FEF72EFDA2
:1051AC0002463B69D31A022B01D9032326E0064B96
:1051BC001B6803F00073002BF0D11EE07B68DB69E9
:1051CC00012B07D1012319E00010024000700040B0
:1051DC00600042420B4B5B68FB60FB6803F480325F
:1051EC007B681B6A9A4206D1FB6803F470127B68D9
:1051FC005B6A9A4201D0012300E00023184618375D
:10520C00BD4680BD0010024080B584B000AF786010
:10521C0039607B68002B01D10123D0E06A4B1B68FD
:10522C0003F007033A689A4210D9674B1B6823F0C6
:10523C00070265493B6813430B60634B1B6803F023
:10524C0007033A689A4201D00123B8E07B681B68D7
:10525C0003F00203002B20D07B681B6803F00403CF
:10526C00002B05D0594B5B68584A43F4E0635360FC
:10527C007B681B6803F00803002B05D0534B5B685D
:10528C00524A43F460535360504B5B6823F0F00276
:10529C007B689B684D4913434B607B681B6803F02C
:1052AC000103002B40D07B685B68012B07D1474B77
:1052BC001B6803F40033002B15D101237FE07B68BE
:1052CC005B68022B07D1414B1B6803F00073002B6A
:1052DC0009D1012373E03D4B1B6803F00203002B43
:1052EC0001D101236BE0394B5B6823F003027B682F
:1052FC005B68364913434B60FEF780FCF8600AE0AC
:10530C00FEF77CFC0246FB68D31A41F288329342CA
:10531C0001D9032353E02D4B5B6803F00C027B682F
:10532C005B689B009A42EBD1274B1B6803F0070389
:10533C003A689A4210D2244B1B6823F00702224988
:10534C003B6813430B60204B1B6803F007033A6860
:10535C009A4201D0012332E07B681B6803F00403FE
:10536C00002B08D0194B5B6823F4E0627B68DB6888
:10537C00164913434B607B681B6803F00803002B32
:10538C0009D0124B5B6823F460527B681B69DB000D
:10539C000E4913434B6000F021F802460B4B5B683F
:1053AC001B0903F00F030A49CB5C22FA03F3094AE9
:1053BC001360094B1B681846FEF7DEFB00231846EA
:1053CC001037BD4680BD00BF0020024000100240D7
:1053DC00A4860008480000205400002080B487B048
:1053EC0000AF0023FB600023BB6000237B61002324
:1053FC007B6000233B611E4B5B68FB60FB6803F02A
:10540C000C03042B02D0082B03D027E0194B3B6173
:10541C0027E0FB689B0C03F00F03174AD35C7B60FF
:10542C00FB6803F48033002B10D0114B5B685B0CD2
:10543C0003F00103114AD35CBB607B680D4A03FB8C
:10544C0002F2BB68B2FBF3F37B6104E07B680C4AAD
:10545C0002FB03F37B617B693B6102E0054B3B6123
:10546C0000BF3B6918461C37BD4680BC704700BF67
:10547C000010024000127A00BC860008CC8600089E
:10548C0000093D0080B400AF024B1B681846BD46B6
:10549C0080BC70474800002080B500AFFFF7F2FFDA
:1054AC000246054B5B681B0A03F007030349CB5C00
:1054BC0022FA03F3184680BD00100240B48600089F
:1054CC0080B500AFFFF7DEFF0246054B5B68DB0AD9
:1054DC0003F007030349CB5C22FA03F3184680BDA3
:1054EC0000100240B486000880B485B000AF78602C
:1054FC000A4B1B680A4AA2FB03235B0A7A6802FB6D
:10550C0003F3FB6000BFFB685A1EFA60002BF9D155
:10551C0000BF00BF1437BD4680BC70474800002058
:10552C00D34D621080B485B000AF78607B6893F87F
:10553C003D30DBB2012B01D001233AE07B68022223
:10554C0083F83D207B681B68DA687B681B6842F037
:10555C000102DA607B681B68184A93420ED07B68A4
:10556C001B68B3F1804F09D07B681B68144A9342C7
:10557C0004D07B681B68134A934211D17B681B686B
:10558C009B6803F00703FB60FB68062B10D07B685D
:10559C001B681A687B681B6842F001021A6007E0FE
:1055AC007B681B681A687B681B6842F001021A60F2
:1055BC00002318461437BD4680BC7047002C0140B0
:1055CC00000400400008004080B483B000AF786055
:1055DC007B681B68DA687B681B6822F00102DA6062
:1055EC007B681B681A6A41F211131340002B0FD110
:1055FC007B681B681A6A40F244431340002B07D1A6
:10560C007B681B681A687B681B6822F001021A60B1
:10561C007B68012283F83D20002318460C37BD46D9
:10562C0080BC704780B582B000AF786039607B6811
:10563C00002B01D1012341E07B6893F83D30DBB2B4
:10564C00002B06D17B68002283F83C207868FCF79D
:10565C0021FF7B68022283F83D207B681A687B68F7
:10566C0004331946104600F071FA7B681B681A68FF
:10567C007B681B6822F008021A607B681B6819683B
:10568C007B681B683A680A431A607B68012283F8BE
:10569C0046207B68012283F83E207B68012283F838
:1056AC003F207B68012283F842207B68012283F82B
:1056BC0043207B68012283F83D20002318460837DD
:1056CC00BD4680BD80B586B000AF786039607B6820
:1056DC00002B01D1012393E07B6893F83D30DBB2C2
:1056EC00002B06D17B68002283F83C207868FCF7FD
:1056FC0069FE7B68022283F83D207B681B689B68EF
:10570C007A68126823F4804323F0070393607B6864
:10571C001A687B6804331946104600F017FA7B6848
:10572C001B689B687B617B681B689B693B617B6822
:10573C001B681B6AFB603B681B687A6913437B61BF
:10574C003B6923F4407323F003033B613B689A6885
:10575C003B689B691B0213433A6913433B613B69EA
:10576C0023F4406323F00C033B613B6923F4704347
:10577C0023F0F0033B613B68DA683B68DB691B0292
:10578C0013433A6913433B613B681B691A013B683D
:10579C001B6A1B0313433A6913433B61FB6823F0F9
:1057AC002203FB603B685A683B685B691B0113432F
:1057BC00FA681343FB607B681B687A699A607B68A4
:1057CC001B683A699A617B681B68FA681A627B6885
:1057DC00012283F846207B68012283F83E207B68F7
:1057EC00012283F83F207B68012283F842207B68EA
:1057FC00012283F843207B68012283F83D2000239B
:10580C0018461837BD4680BD80B584B000AF7860AF
:10581C0039607B6893F83E30FB737B6893F83F30BC
:10582C00BB737B6893F842307B737B6893F843308F
:10583C003B733B68002B10D1FB7B012B02D17B7B94
:10584C00012B01D0012369E07B68022283F83E2002
:10585C007B68022283F8422031E03B68042B10D194
:10586C00BB7B012B02D13B7B012B01D0012355E0EB
:10587C007B68022283F83F207B68022283F8432056
:10588C001DE0FB7B012B08D1BB7B012B05D17B7B66
:10589C00012B02D13B7B012B01D001233EE07B6825
:1058AC00022283F83E207B68022283F83F207B682B
:1058BC00022283F842207B68022283F843203B6853
:1058CC00002B03D03B68042B08D00FE07B681B68CF
:1058DC0001220021184600F0A7F916E07B681B682E
:1058EC0001220421184600F09FF90EE07B681B682A
:1058FC0001220021184600F097F97B681B680122F1
:10590C000421184600F090F900BF7B681B681A68E8
:10591C007B681B6842F001021A600023184610379E
:10592C00BD4680BD80B584B000AF78607B681B68D5
:10593C00DB68FB607B681B681B69BB60BB6803F0A2
:10594C000203002B20D0FB6803F00203002B1BD0BA
:10595C007B681B686FF002021A617B6801221A7760
:10596C007B681B689B6903F00303002B03D07868EA
:10597C0000F0D1F805E0786800F0C4F8786800F021
:10598C00D3F87B6800221A77BB6803F00403002B62
:10599C0020D0FB6803F00403002B1BD07B681B6832
:1059AC006FF004021A617B6802221A777B681B680D
:1059BC009B6903F44073002B03D0786800F0ABF8BC
:1059CC0005E0786800F09EF8786800F0ADF87B6828
:1059DC0000221A77BB6803F00803002B20D0FB6869
:1059EC0003F00803002B1BD07B681B686FF00802C8
:1059FC001A617B6804221A777B681B68DB6903F0E9
:105A0C000303002B03D0786800F085F805E0786874
:105A1C0000F078F8786800F087F87B6800221A7735
:105A2C00BB6803F01003002B20D0FB6803F01003BD
:105A3C00002B1BD07B681B686FF010021A617B680F
:105A4C0008221A777B681B68DB6903F44073002B10
:105A5C0003D0786800F05FF805E0786800F052F841
:105A6C00786800F061F87B6800221A77BB6803F055
:105A7C000103002B0CD0FB6803F00103002B07D0B3
:105A8C007B681B686FF001021A617868FBF7B8FE3F
:105A9C00BB6803F08003002B0CD0FB6803F0800381
:105AAC00002B07D07B681B686FF080021A61786846
:105ABC0000F045F9BB6803F04003002B0CD0FB68E9
:105ACC0003F04003002B07D07B681B686FF040028B
